:1000000000180020C1000000692700002D27000013
:100010002D2700002D2700002D2700002D27000090
:100020002D2700002D2700002D2700006927000044
:10003000692700002D270000B52500008526000057
:100040006927000069270000692700006927000070
:100050006927000069270000692700006927000060
:100060006927000069270000692700006927000050
:1000700089160000F9270000D12800006927000038
:100080006927000069270000692700006927000030
:100090006927000069270000692700006927000020
:1000A000C9180000692700006927000069270000BF
:1000B0006927000069270000692700006927000000
:1000C000F8B502F055FB0821474A484B1A60484AE8
:1000D000484B1A60484A494B1A60494B1A780A4201
:1000E00002D01A780A431A702A22464B46481A70E0
:1000F00000234649464C1A188A4203D2E558043375
:100100001560F8E70021434B434A934201D202C3F2
:10011000FBE70023414A424958589446985004331B
:10012000C02BF9D100210326FF2580248A083D4BEE
:100130009200D2180B002F003340DB009F40106864
:100140000131B84307002000984003003B4313608F
:100150002029EBD16246344B1A608A22334B1A7045
:10016000334B663A5A707C321A709E3A9979114232
:10017000FCD0102299791142FCD10C209A792C499B
:100180000240082AFAD1053A0A713D324A71203AF2
:1001900099791142FCD0402299791142FCD025492D
:1001A000254A11602021224A117014399A790A4097
:1001B0000C2AFBD1214A224B1A60224A224B1A6098
:1001C0000022224B1A60224B07321A60214A224B2E
:1001D0001A6062B600F0E6FE02F026FD02F0CEFAEA
:1001E00000F043FEFEE7C046300004F034800440D7
:1001F000823F0000388004400100000F3C80044032
:1002000002D0074000E0074040FEFF1F44FFFF1FF1
:10021000C02E000044FFFF1F9803002000F9FF1FBD
:100220000000000000E400E008ED00E0005006409F
:10023000004006400000011044800440C000050555
:10024000048004407FBB000014E000E018E000E000
:1002500010E000E00000202020ED00E0FFFFFFFFA5
:10026000FFFFFFFFFFFFFFFFFFFFFFFFFFFFFFFF9E
:10027000FFFFFFFFFFFFFFFFFFFFFFFFFFFFFFFF8E
:10028000FFFFFFFFFFFFFFFFFFFFFFFFFFFFFFFF7E
:10029000FFFFFFFFFFFFFFFFFFFFFFFFFFFFFFFF6E
:1002A000FFFFFFFFFFFFFFFFFFFFFFFFFFFFFFFF5E
:1002B000FFFFFFFFFFFFFFFFFFFFFFFFFFFFFFFF4E
:1002C000FFFFFFFFFFFFFFFFFFFFFFFFFFFFFFFF3E
:1002D000FFFFFFFFFFFFFFFFFFFFFFFFFFFFFFFF2E
:1002E000FFFFFFFFFFFFFFFFFFFFFFFFFFFFFFFF1E
:1002F000FFFFFFFFFFFFFFFFFFFFFFFFFFFFFFFF0E
:10030000FFFFFFFFFFFFFFFFFFFFFFFFFFFFFFFFFD
:10031000FFFFFFFFFFFFFFFFFFFFFFFFFFFFFFFFED
:10032000FFFFFFFFFFFFFFFFFFFFFFFFFFFFFFFFDD
:10033000FFFFFFFFFFFFFFFFFFFFFFFFFFFFFFFFCD
:10034000FFFFFFFFFFFFFFFFFFFFFFFFFFFFFFFFBD
:10035000FFFFFFFFFFFFFFFFFFFFFFFFFFFFFFFFAD
:10036000FFFFFFFFFFFFFFFFFFFFFFFFFFFFFFFF9D
:10037000FFFFFFFFFFFFFFFFFFFFFFFFFFFFFFFF8D
:10038000FFFFFFFFFFFFFFFFFFFFFFFFFFFFFFFF7D
:10039000FFFFFFFFFFFFFFFFFFFFFFFFFFFFFFFF6D
:1003A000FFFFFFFFFFFFFFFFFFFFFFFFFFFFFFFF5D
:1003B000FFFFFFFFFFFFFFFFFFFFFFFFFFFFFFFF4D
:1003C000FFFFFFFFFFFFFFFFFFFFFFFFFFFFFFFF3D
:1003D000FFFFFFFFFFFFFFFFFFFFFFFFFFFFFFFF2D
:1003E000FFFFFFFFFFFFFFFFFFFFFFFFFFFFFFFF1D
:1003F000FFFFFFFFFFFFFFFFFFFFFFFFFFFFFFFF0D
:10040000FFFFFFFFFFFFFFFFFFFFFFFFDEF9FFFF23
:1004100010B5064C2378002B07D1054B002B02D0DA
:10042000044800E000BF0123237010BD44FFFF1FFC
:1004300000000000C02E0000084B10B5002B03D0B8
:100440000749084800E000BF07480368002B00D1B7
:1004500010BD064B002BFBD09847F9E700000000C9
:1004600048FFFF1FC02E000044FFFF1F00000000D8
:1004700070470B000833DBB210B5072B09D80122F7
:100480009A401300DD22134203D0006803681B6802
:10049000984710BD10B501210D2000F00FFD00217F
:1004A0000D2000F0EBFC174C1749A06C0368DB69CA
:1004B0009847220000234C32137022004E321370F2
:1004C00022004D321370114AA365E26522662200B4
:1004D000E932137022006632137022006532137005
:1004E0002200673213702200636564342370202475
:1004F00068321370064B64201C6000F039FD054B18
:100500001C6010BD64FFFF1F127A0000FFFF000097
:10051000840000F8880000F8F7B5019308AB1B7859
:100520000500013BDBB20C0017000F2B22D849B2AB
:1005300000291FDAE02C17D8806C0B43D9B203686E
:100540007F261B6898473900A86C314003681B68F8
:10055000984710239C43C02C0CD0A86C01990368C9
:1005600031401B68984705E0F72C03D9483021003B
:10057000FFF77FFFF7BDFFFF030010B566331B7861
:10058000F12B76D018D8B02B35D008D8902B28D0A6
:10059000A02B48D0802B00D08AE0036844E0D02B09
:1005A0004ED004D8C02B00D082E0036949E0E02B94
:1005B00023D0F02B4ED07BE0FA2B14D008D8F32BAD
:1005C0006BD058D3F62B6FD0F82B71D1036B6CE046
:1005D000FC2B0CD009D3FE2B0BD0FF2B68D1436C26
:1005E00063E0436820E0436B5FE0836B5DE0C36BD7
:1005F0005BE0036C59E0C36816E08269002A57D0BB
:10060000030068331978FE23C9019B0119400300D8
:1006100067331C787F2323401943264B6530C91864
:100620000078904744E08368002B41D0020001002D
:10063000683267316530127809780078984737E07A
:100640004369002B34D0020065306732117800789E
:1006500098472DE0C269002A2AD0010067310B7843
:10066000497809021943802900D9802169309047CF
:100670001EE0036A12E0416A002919D003006833C2
:100680001A78FE23D2019B011A407F23673000783D
:1006900003401A43100088470AE0836A002B07D002
:1006A00067300078984703E0C36A002B00D0984772
:1006B00010BDC04600E0FFFF73B506006436327817
:1006C0000400D307DB0FDBB20D00002B00D196E056
:1006D00001218A4300D192E00200663211780A00BB
:1006E000803AD2B2602A20D8020065321078A8423F
:1006F00002D06B426B41DBB232785208022A04D03E
:10070000032A05D0012A7AD104E0002B77D001E03A
:10071000002B74D123002200683367321B781278D3
:1007200000902000FFF7F8FE69E00800F0380F287D
:1007300065D802F0A5F90D4C32246464086408649D
:1007400008080864080820004830FFF792FE56E0C9
:10075000230067335978250009021A780B006935A0
:100760002E001343802B00D98023ED18AE4246D0D3
:10077000A06C3178036801361B689847F6E72300C0
:10078000A06C67331D780368F3211B6898477F21AD
:10079000A06C29400368DB6C17E02300A06C683371
:1007A0001D78013B19780368ED010D431B68F221A8
:1007B00098477F262900A06C314003689B6C9847BE
:1007C000A06CE909036831409B6C984717E023004F
:1007D00067331D7870232D012A001A4023006833E7
:1007E0001D780F232B401A431500A06CF1210368DC
:1007F0001B689847A06C290003681B68984773BD65
:1008000001003022030091430120802909D01A0001
:10081000EF2130320A4204D0C03B18004342584115
:10082000C0B27047002342B29A420EDA02000C3284
:10083000D2B2012A09D9042201009143F92904D036
:100840000300EF2801D80F22934318007047FFFFE1
:10085000F0B5BD4C89B023004C331F78102F00D960
:10086000FCE1A06C03681B699847002800D1F5E102
:10087000A06C03685B699847C6B204233200050088
:100880009A43F92A00D1E9E1A36D002B00D088E05A
:10089000AE4B1E7023004D331B7818000393FFF7F7
:1008A000C1FFFFF7ADFF00280AD02B0608D46A4627
:1008B000A64B127B1A70230050331E700123A365D0
:1008C00023004F331D782800FFF7ACFFF12845D0F7
:1008D0001FD8B02844D007D8902841D0A0283FD0B6
:1008E000802800D0B0E03BE0D02837D002D8C02824
:1008F00034D0A9E0E02833D0F02800D0A4E0802351
:100900006365230000224D331A7023006933187089
:1009100028E0F8280ED005D8F3281FD020D3F628D9
:1009200008D091E0FA2800D28EE0FC2802D9FE28F7
:1009300000D289E02300220066331870002365325C
:100940001370220067321370220068321370220085
:100950000121E9321170A3656365C4E0022300E060
:1009600003236365626DA36D013A934200D2B7E041
:100970002300663318700F202300284022006533BF
:100980000130187023005032127867331A70220039
:10099000002368321370A365636523000122E933E5
:1009A0009CE002063ED5C5B2F73D082D3AD801219C
:1009B0000800DD22A8405200104202D1002D11D0C3
:1009C00030E02300220066331E700023673213706C
:1009D0002200683213702200653213702300E9335D
:1009E000197080E0220069321078F0282CD1F726A7
:1009F0005A1CE31869331E702300663318702300F5
:100A000067331A702300120A68331A7023006533A3
:100A10001D702300E933197023004D33A56565650A
:100A20001D7060E022004F321178E218F02912D1D7
:100A300069321670626D0392013A934250D32300DB
:100A40004F331E78F02E08D1220000234D32A365CB
:100A50006365137002E14F32EBE73000FFF7E2FE0F
:100A60002300663305001870FFF7CAFE22006532C6
:100A7000002804D00F2333400133137000E01070BE
:100A8000220023005032127867331A70039A002331
:100A9000032A02D1230051331B78220068321370DD
:100AA0000023A365636523000122E9331A70B02D8A
:100AB0000DD006D8902D0AD0A02D08D0802D0AD1B7
:100AC00005E0D02D03D0E02D01D0C02D03D12300AF
:100AD0004D331E7007E0230000224D331A7002E0F0
:100AE0000133A365BAE0230066331A78902A05D152
:100AF000220068321278002A00D1B1E02300663368
:100B00001B78803BDBB2602B00D9ACE0230065335F
:100B10001B78BB4200D1A6E0002F00D1A3E0002546
:100B200039002000FFF7C8FD002D00D196E023001A
:100B300066331B78F82B0FD1054A00251268049202
:100B40000499044A116034E064FFFF1FB3FFFF1FE4
:100B50005000002060FFFF1F0125F02B4CD0220029
:100B600021006732683112780978EF2B1CD858B20F
:100B7000002841DA0F20FE2683431811F6031B02DA
:100B800012043240034313432200FE26F02765324D
:100B900010780906F6050138314000023F0138405F
:100BA0000B430343180025E0F72B01D8F62B03D1A4
:100BB00001251B020F201CE002201D008543F12DA2
:100BC0000AD1FE211B02C903120418430A40104334
:100BD00001F016FA01250FE00125F22B0CD1FE20C1
:100BE0001204C0031040FE220B06D2051340184326
:100BF000204B184301F004FA002001F061FA1E4F67
:100C00001E4E002816D01E4B19781E4B18781E4B0E
:100C10001A781E4B1B78F82905D13D680595059D6E
:100C20003560002502E0F02906D001250090200063
:100C3000FFF772FC002D06D02022154B1A603B688E
:100C40000693069B33603B6832680793079B9B1AA9
:100C50000F2B0DD920220F4B1A6009E00025CBE79E
:100C600080221A704AE72000FFF786FC012557E72B
:100C700009B0F0BD03F200005000002060FFFF1F2C
:100C80005203002059030020560300205703002080
:100C9000840000F8880000F837B5244B244C002568
:100CA000A36423004C331D7023004D331D702300BB
:100CB0004E331D701F4B0322E3652366230064330C
:100CC0001A70230065331D70230066331D702300E6
:100CD00067331D70230068331D7023002000E93343
:100CE0001D7029007D3269306565A56501F0C2FF80
:100CF000114A1249200025606560A560E560256104
:100D00006561A561E56125626562A562E5622563AD
:100D10006563A563E5632564656401F06FFF084BB7
:100D20001B680193019A074B1A6037BD68FEFF1FCD
:100D300064FFFF1FFFFF000040FEFF1F7104000063
:100D40005000002060FFFF1F10B50368C9B21B6888
:100D5000984710BD10B50368C9B21B68984710BD0D
:100D600010B50368C9B21B68984710BD10B5036879
:100D7000C9B21B68984710BD10B5080000F09CFB75
:100D8000012010BD10B5080000F096FB012010BD39
:100D900070B508000D0001F075FF04000100280087
:100DA00000F0DAFB200070BD10B51400080011003F
:100DB00000F0D2FB200010BD10B500F04FFC10BDBC
:100DC00010B5080000F076FB431E9841C0B210BD7C
:100DD00010B5080000F048FB431E9841C0B210BD9A
:100DE00010B50800110000F0A3FA10BD10B50800FE
:100DF00000F0F4FA10BD10B5080000F075FA10BD4F
:100E000010B500F0F3F910BD10B5044B4808C01838
:100E100001F04AFE00F02EF910BDC046C0C62D00FC
:100E200010B51400054B4808C01801F03DFE00F055
:100E300021F9200000F0A8F910BDC046C0C62D0061
:100E400010B500F0F3FB10BD10B500F0BFFB10BDF6
:100E500010B500F0ABFB10BD10B500F089FB10BD64
:100E600010B500F091FB10BD704710B5FFF712FBF5
:100E7000FFF7EEFC01F022FBFAE7FFFF10B51A289E
:100E800018D80C2358430C4A835810181C7D027A3A
:100E9000224205D0002901D01A710BE01A7209E034
:100EA00043681A68002902D003210A4301E00221A5
:100EB0008A431A6010BDC046F42C0000F0B51A2811
:100EC0002FD80C2217004743164CE5196B682600F3
:100ED000012901D0042911D1504334583018257DFF
:100EE000027A20202A432275A22252001A601A6830
:100EF000042901D1024313E0824311E038592C7ACE
:100F0000027DA24302758022002908D0022902D165
:100F10000422FF3204E00022032901D18122520081
:100F20001A60F0BDF42C000072B60C4B1A680C4B22
:100F300018680C4B1B6862B65B0104D532239342E0
:100F40009B415B42C018084B9A1A084B5A43FA233C
:100F50009B005843920D10187047C04618E000E0FF
:100F60005000002004ED00E07FBB0000555501005B
:100F700070B50400FFF7D8FF0500002C0FD0FFF775
:100F8000D3FF074B401B984206D9013C002C06D0EA
:100F9000FA239B00ED18F2E701F090FAEFE770BD3D
:100FA000E703000080221E4BD20510B51A60802294
:100FB000002012061A601B4B1B4918601B4B1C4A71
:100FC0001960282313601B4A1B4C13601B4A1360D3
:100FD0001B4A13601B4A13601B4A136009222260DC
:100FE0001A4C20601A4C21601A4C23601A4C236062
:100FF0001A4C22601A4C20601A4801601A490B6092
:101000001A490B601A4B1A6001F048FB1920FFF7D0
:10101000AFFF00F039FF1420FF30FFF7A9FF10BD2C
:1010200000E100E004800340FFBF000008800340AF
:101030000C80034014800340008003401C80034068
:10104000248003402C8003403480034004900340FC
:10105000089003400C90034014900340009003401C
:1010600004A0034008A003400CA0034014A00340C8
:1010700000A0034080212D4AC90013680B43136070
:1010800000232B4A13702B4A13702B4A13702B4AE0
:1010900013702B4A13702B4B1B78032B0FD004D8E3
:1010A000002B0FD1284A294B0BE0152B04D0192B0C
:1010B00008D1274A274B04E0234A274B01E0274A5F
:1010C000274B1A60274B1B78042B11D005D8012B16
:1010D00012D1D122244B92000DE0052B04D0182B05
:1010E0000AD1224A224B06E0D122224B920002E092
:1010F0009122214B92001A60002800D101301F4B31
:10110000C204D20E1A700022C0B258709A702C32EB
:10111000DA70FF231A4A116899430B0040210B43F0
:1011200013608022174B52011A60704734800440CC
:10113000DD00002059000020E4000020DE00002037
:10114000580000209A0000201303000040A0044033
:101150001304000054D0044018C0044013020000DF
:101160000490044078FEFF1F44A0044044040000A3
:1011700050D004401CC004400890044000A0064029
:101180000CE400E000E100E0132110B5164B9A7862
:101190008A431100032202400A43410701D510216E
:1011A0000A439A700F2210490240042A03D14024B6
:1011B0008A7922438A7110215A798A43084200D0E1
:1011C0000A4310215A719A798A43840600D50A434A
:1011D00005499A71C30506D520204B780A78DBB201
:1011E00002430A704B7010BD00A006402C4B10B596
:1011F0001B685B0553D52B4B1B78DBB2002B02D051
:1012000001F05CF9F7E78021274A49011160274A7C
:10121000D370274B1B78032B12D005D8002B13D18A
:101220000421244BFF310EE0152B05D0192B0BD1D7
:101230000421214BFF3106E00421204BFF3102E065
:1012400004211F4BFF3119601E4B19787F230B407F
:10125000042B12D005D8012B13D104211A4BFF31D6
:101260000EE0052B05D0182B0BD10421174BFF31B5
:1012700006E00421164BFF3102E00421154BFF313B
:1012800019601379D3790023134A1370134A13702A
:10129000134B1B68002B02D0124A12781A7110BD32
:1012A000348004405800002080E100E000A00640A7
:1012B0009A00002040A0044054D0044018C00440CC
:1012C0000490044078FEFF1F44A0044050D0044026
:1012D0001CC0044008900440DD000020590000209C
:1012E000540000209B00002070B505000C4B1C78BA
:1012F000E4B2002CFBD128000121FFF7DFFD28001C
:101300002100FFF7BBFD0C236B431800054A064B79
:10131000815810181960027A044B1A7070BDC046CB
:1013200058000020F42C0000E0000020DC00002029
:1013300010B5002901D080231843224C2278904216
:101340003ED0214B1B685B0539D57F231340042B0E
:101350000FD004D8012B0FD100221C4B0BE0052B22
:1013600004D0182B08D10022194B04E00022194B9D
:1013700001E00022184B1A606023002900D11C3BB9
:101380007F220240042A15D006D8012A17D1C02294
:10139000920013430D4A11E0052A06D0182A0ED1F7
:1013A0008022D20013430A4A08E0C022920013436D
:1013B000084A03E0802292001343074A136020701A
:1013C00010BDC04678FEFF1F3480044044A0044096
:1013D00050D004401CC0044008900440194A1378BF
:1013E00083422ED018490968490529D5032B0FD00F
:1013F00004D8002B0FD115490B600CE0152B04D03D
:10140000192B08D10021124B04E00021114B01E0FF
:101410000021114B196003280FD004D800280FD1E8
:101420000E490A4B0BE0152804D0192808D10C49A5
:10143000074B04E00949074B01E00A49064B1960D4
:10144000107070479A0000203480044040A004408F
:1014500054D0044018C0044004900440130300001A
:1014600013040000130200000E4B70B51A6800232D
:10147000520515D50C4C1A2811D80C2213004343E1
:101480000A490B4D5A58CB181B7A012122602B7048
:10149000FFF714FD23682A781A72012300E0236005
:1014A000180070BD3480044054000020F42C00006B
:1014B0009B00002000207047F8B51F4B06001B68FA
:1014C0005B0537D51D4B1B68002B02D01C4A1278D8
:1014D0001A711C4D2C7801343F2C0AD9002408E0E5
:1014E00001F04EF9402815DC17490B795BB2002B4F
:1014F00004DB164F3B78A342F2D010E03B78013377
:101500003F2B00D90023124AD25CDBB2D2B2CA719F
:101510003B70EEE7FF28ECDD00F0D0FFE9E70122A9
:101520000B4BF6B21E550B4BE4B21A70064BAB32A6
:101530002C70DA70F8BDC04634800440E000002012
:10154000DC000020E400002000A00640DE000020B7
:101550005A0000205800002070B504004518AC4225
:1015600004D02078FFF7A8FF0134F8E770BDFFFF33
:1015700010B5044B1B78002B02D000F09FFFF8E75A
:1015800010BDC04658000020064B1878064BC2B26A
:101590001B78D8B2824201D33F3000E00138801A74
:1015A0007047C046E4000020DE000020054B18789C
:1015B000054BC0B21A78D3B2984200D24030C01A5C
:1015C0007047C046DD0000205900002010B5124BC6
:1015D00012491A780878D2B2C3B29A4218D00133AD
:1015E0003F2B00D900230E48C45CD8B208700D49C7
:1015F000E4B20968200000290CD0934200D940329F
:10160000D31A20001A2B05DC074B1B780B7201E064
:101610000120404210BDC046DD00002059000020DE
:101620009C000020540000209B000020084B1A78EA
:10163000084B1B78DBB29A4207D001333F2B00D90D
:101640000023054AD05CC0B201E00120404270474F
:10165000DD000020590000209C000020064B074AB6
:101660001B78DBB21370064B1B68002B02D0054AB7
:1016700012781A727047C04659000020DD00002021
:10168000540000209B00002030B5234A13799B06AC
:1016900011D5224BD479187819000130E4B2002317
:1016A0003F2800DC03001E480078834203D01D4819
:1016B000C454DBB20B70D1781748C9B24BB2002BBF
:1016C00017DA03795BB2002B13DA174B174C1D782E
:1016D0002378DBB29D4202D16C23C37009E0013351
:1016E0003F2B00D900231248C05CDBB2C0B2D071DE
:1016F0002370402319420ED0117919420BD00021DA
:101700000C4B19700C4B1B688B4202D00B490978AB
:1017100019722C23D37030BD00A00640DD000020DC
:10172000590000209C000020E4000020DE00002082
:101730005A00002058000020E0000020DC000020BB
:101740000223F0B50A4A0B4E1478C8272343DB0066
:10175000F518686008480578002D00D1403F09045D
:101760000F43F75001235D405C4005701470F0BDDD
:101770005001002000F8FF1FC8010020431E10B5D3
:101780000020032B0ED872B6074A9900885800280B
:1017900007D044685B008C50044904885A5A121BD5
:1017A0005A5262B610BDC046400100204A030020D4
:1017B000431E0020032B09D872B6054A9B009B5894
:1017C000002B02D001305B68FAE762B67047C04672
:1017D00094010020F8B572B60123174A08259446F3
:1017E0001E00164964465A1EA25C2A421AD05F01A6
:1017F0007C589A00002C05D1CB1908305860104B4A
:10180000CB5109E03243D2005458002C0AD18B1836
:10181000083058600B4B8B500B4A1378013B137008
:1018200062B608E00133052BDCD162B60022064B1C
:101830001A7000F09FFBF8BD382E000000F8FF1F63
:1018400088004000C8004000BE010020421E10B5C4
:10185000032A30D8022380001843174BC0001B18FE
:1018600072B6164CA05C03280BD801F009F91604D7
:101870000207052012E0083302200FE0083304209D
:101880000CE00F48920014580E4B002C01D111505F
:1018900001E09858416099500CE00320A0540A00E0
:1018A00008325A60C822180700D4403A098809044F
:1018B0000A431A6062B610BD00F8FF1FFC0000204A
:1018C00094010020A4010020F7B5B04B1C781D0046
:1018D0000423E4B21C421FD0AD4B1B78002B18D060
:1018E000AC4A1378DBB2002B05D0013BDBB213709E
:1018F000002B00D100BEA84A1378DBB2002B06D023
:10190000013BDBB21370002B01D100F0BBFD00F0F6
:10191000BFFB04229D4B1A700822224000D149E2ED
:101920009E4B9F4F1B78DBB29C08E4001D093C19BD
:10193000002D00D0CFE1226863689006000F0138C7
:101940000C2800D9C3E101F0A5F880018001C20193
:10195000C201C201C201C201C2019F01C201C20192
:10196000C2010D001A688F4E5B688F4973600023B7
:101970000B6001218D48326020608D4C92B2217045
:101980008C4C3B61BB610190A24218D8D020C000B2
:10199000824200D3E1E081204000824200D1BDE0DC
:1019A00006D8802A00D1A3E0822A00D1A5E0E9E090
:1019B000814B9A4200D1C0E0FF33FF3313E0902304
:1019C0001B019A4213D009D8803B9A4200D0D9E03B
:1019D0006F4B7A4C1B7823700B000FE1784B9A42C7
:1019E00000D12FE1774B9A4200D105E1CAE03C00DB
:1019F0003D00B278664B20341A70A03580222368EF
:101A0000134203D06068083800F0B4FA0834AC42DE
:101A1000F4D1002425006C4BE058002805D0436821
:101A2000009300F0A7FA0098F7E7674B1851674B4F
:101A3000E050674BE058002805D04368009300F061
:101A400099FA0098F7E7624B624A1851624BE050EE
:101A50006B00D052614BE85C0238032807D801F0D4
:101A60000FF802040204002200E001225A55013559
:101A70000434042DCFD100230124594D2B70594B30
:101A80005949621EE3188A5C9B001A7008231A42A7
:101A900020D000F051FA6301002805D0FA18083070
:101AA0005060524AFA5003E0F8502B7801332B7003
:101AB00000F042FA0122A3001343DB00002805D006
:101AC000FA1808305060019AFA5003E0F8502B7869
:101AD0009B182B7002210023A2001143C9007B50E8
:101AE00003210A438A400134BB50052CC7D184E04E
:101AF000324C23706370022380E07F22B088024062
:101B0000042A3FD82D4C920023706370384BD218B2
:101B1000022312781A4271D021706FE07F23B288BD
:101B20001A40042A2ED87388002B2BD1022030496A
:101B300092005218117881430DE07F23B2881A4039
:101B4000042A1FD87388002B1CD102202849920038
:101B500052181178014311704FE07288B188254BFB
:101B60005C68002C0ED01888904209D158888842B1
:101B700006D1120A032A01D123783FE01B893DE0F8
:101B80000C33EDE70F221A4B1A705BE08020074000
:101B9000C70100205101002038020020902007409A
:101BA00000F8FF1FB4010020E8000020C80040003A
:101BB000C80100208106000002030000BF010020D0
:101BC00021090000210A000040010020EC00002053
:101BD000940100204A030020A4010020FC00002002
:101BE000BE01002030C80110382E000088004000DF
:101BF000C02007403C2E000000231C00F5889D42B9
:101C000000D91D002E00402D00D9402620003100B3
:101C1000FFF796FDA419AD1B03D12F00402E04D071
:101C200010E04027AF4200D92F0020003900FFF715
:101C300087FDE419ED1B01D1402F03D1794B1C60C6
:101C4000794B1D800122794B40E0794A794910682F
:101C5000884216D1784952688A4212D11A78A92A44
:101C60000FD15A78452A0CD19A78C22A09D1DB784B
:101C70006B2B06D10021714BBD3A08001A70FFF79B
:101C80005FFD6F4B236022E0664F3E68002E13D04D
:101C9000654B1C882500402C00D9402529003000C8
:101CA000FFF74EFD641B604BA4B21C80002C01D1D9
:101CB000402D00D174193C60A0225D4BD2001988E0
:101CC000914204D100225A709A785E4B1A70012218
:101CD000564B1A706AE008226068013D0838EDB280
:101CE000134037D000F046F95749A8004258574BE7
:101CF000002A1CD0566846501100585D08316160BA
:101D000003280BD800F0BCFE02040608032104E0FF
:101D1000022102E0052100E0042159550821C823D1
:101D20000C4200D1403B1288120413433DE0585D41
:101D3000032808D800F0A4FE3A3A0204002200E08A
:101D400001225A5532E008221440621E94410234A6
:101D50005C552BE02268110C8AB2028000291ED04B
:101D60003B4943804360AB005F583A4E002F01D19E
:101D7000585001E0F158486037496D00F0506B5AF7
:101D8000D2186A5200F0D8F8002802D008306060FB
:101D900005E0324A206013780133137006E008230F
:101DA0001C4201D12E4B00E0254B236008222D4B15
:101DB0001A708AE5012004421ED002231B49284CD8
:101DC0000B70294B294E1A70294B1C609C60294CC2
:101DD0001A61DC600D249A615E60274B1C70FF2342
:101DE000264C2370174C2B702270254A13709F22AB
:101DF000244B1A70087013E063B2002B04DA0D2232
:101E00001D4B1A7080232B700222144204D01B49F0
:101E10000B78DBB20B702A7010231C4200D02B70A1
:101E2000F7BDC046E8000020BC0100209420074018
:101E3000B401002021090003010004005101002029
:101E4000C80040009820074094010020FC000020BA
:101E500040010020EC0000204A030020BE010020C9
:101E60008800400080200740500100200001002031
:101E700000F8FF1F54010020C020074088200740C1
:101E80008C2007408420074010B500F093FD00220D
:101E900011001B4BD150981808324160882AF9D1A3
:101EA00080201849C0020A6802430A601A0A1649CB
:101EB000D2B20A701A0C1549D2B20A70144A1B0E1B
:101EC0001370FF23134A00201370134A1349137031
:101ED000134A137001220A701249087012490A70DD
:101EE000124A116899430B0070210B431360802242
:101EF0000F4B52041A6010220E4B1A7010BDC046D0
:101F000000F8FF1F348004409C200740B0200740A9
:101F1000B4200740802007408820074094200740D5
:101F200010200740002107408420074018E400E00B
:101F300000E100E00821074070B572B60B4D2C6837
:101F4000200000F03DFE0F2802DD62B600200CE00C
:101F500080231B06C3409C432C6062B64823584331
:101F6000034B181800230360436070BD7CFEFF1F05
:101F7000C0F9FF1F10B504000E484821201A00F0D8
:101F800093FD0F2814D80C4B1B78002B07D00B4B5C
:101F90001B78002B03D02000FFF71CFC08E072B672
:101FA00080231B06C340064A11680B43136062B6C8
:101FB00010BDC046C0F9FF1FBE010020C7010020B0
:101FC0007CFEFF1F0B4B70B51B6805000A4C002BF5
:101FD00007D021883B2904D90022084898470023CC
:101FE000238023883B2B03D85A1C2280034AD554D4
:101FF00070BDC046F0010020540300205A030020A9
:10200000F8B501231D4D1E4C2B7023680700002BD3
:102010001DD11C4E1C4B1B78002B2DD00320FFF72D
:10202000C7FB052804D9013E184B002E06D108E055
:10203000FFF782FF20600028F5D008E01A78002A18
:1020400002D001221A7017E000F038FAE2E7002609
:102050000E4B21681E704B885A1C9B00CB189F604A
:102060000F2A01D84A8005E0402303200B80FFF7A8
:10207000EDFB266000232B70F8BDC046E001002078
:102080000C020020E1420000C701002010020020E5
:1020900070B5094B1D78002D0CD1084C2168002922
:1020A00008D04B88002B05D09B000B800320FFF746
:1020B000CDFB256070BDC046E00100200C02002071
:1020C000F7B5B44E019033683500002B13D1B24BF5
:1020D0001B78002B00D1A7E10420FFF74FFB3060F5
:1020E000002800D1A0E10488002C04D1FFF742FFB2
:1020F0003460200099E1286843889A089200821889
:10210000946802880433934201D2438005E0FFF7CC
:1021100031FF0420FFF732FB28600F23250022093E
:102120009E491A401D40260A37000A702A001F40A7
:10213000083A0137062A7FD8019A002A02D097422E
:1021400000D071E1220B1340082D07D1082B00D0DD
:102150006AE18022924B1A70924B21E0092D16D130
:10216000092B00D060E1220E8D4B210C002A07D0F4
:10217000902018708C4BD2B21B68002B15D152E006
:1021800080201870874B1B68002B0ED14BE00A2D66
:102190000FD10A2B00D047E1A022814B1A70834B4C
:1021A0001B68002B3FD0220E210CC9B2F8B2984711
:1021B00039E00B2D07D10B2B00D035E1B022784B45
:1021C0001A707B4BECE70C2D07D10C2B00D02BE1C8
:1021D000C022734B1A70774B08E00D2D0ED10D2BDA
:1021E00000D021E1D0226E4B1A70734B1B68002B7C
:1021F00019D0210CC9B2F8B2984714E00E2B00D0C8
:1022000012E1E022664B1A706C4B1B68002B0AD05F
:10221000FE226102480E9201610C1140684A01439E
:102220008918F8B29847674B220C1F70664B240E32
:102230001A70664B1C70AAE0AB1EF0B2012B05D9D8
:10224000052D6DD1F02879D9F72877D0F1380E28EF
:1022500000D9E9E000F014FC080A17E8E81EE823BA
:10226000E82D3741E84B5500594B0DE0594B1A68A2
:10227000002A52D0FE236002410E9B01600C1840E0
:102280000843904749E0544B1B68200CC0B2002B18
:1022900042D142E0514B1B68002B36D13DE0504B00
:1022A0001B68002B31D14F4BF8201B68002B33D11A
:1022B00033E04D4B1B68002B27D14A4BFA201B689B
:1022C000002B29D129E0494B1B68002B1DD1454B20
:1022D000FB201B68002B1FD11FE0454B1B68002B08
:1022E00013D1404BFC201B68002B15D115E0414B4E
:1022F0001B68002B09D13B4BFE201B68002B0BD128
:102300000BE03D4B1B68002B01D0984705E0354B97
:102310001B68002B01D0FF209847214B1E7082E7DD
:10232000042D08D1F0B2FFF74DFE200CC0B2FFF72C
:1023300049FE200E76E06B1F022B67D8F0B2FFF744
:1023400041FE052D08D0200CC0B2FFF73BFE072D43
:1023500002D1200EFFF736FE284B1B4A1988117058
:102360001A4A080A107000221A800D4BF0321A70B7
:10237000234B1B68002B03D0EF3A2248984706E016
:10238000214B01201B68002B4FD01E48984701208D
:102390004BE0C04618020020C7010020580300206F
:1023A000520300202002002028020020F401002017
:1023B00024020020E4010020F8010020E8010020B0
:1023C00000E0FFFF590300205603002057030020C0
:1023D00000020020EC0100201C020020040200206A
:1023E000CC010020D8010020FC010020DC010020ED
:1023F00014020020D4010020D0010020540300204A
:10240000F00100205A030020080200200F2D0BD1FC
:10241000F72800D91AE7F02803D0044B1B88002BBB
:1024200002D0F0B2FFF7CEFD0020FEBD5403002025
:1024300070B5124C2368002B04D0206842880188B4
:10244000130010E00E4B1B78002B03D00220FFF787
:1024500095F920602568002DEFD10CE0C618367A7A
:10246000002E03D001339D1A8B42F7DB002D02D1E1
:10247000FFF780FD2560280070BDC04634020020B3
:10248000C701002010B50B4B1B78DBB2002B0FD11E
:10249000094C21684A883F2A03DC881803720132FC
:1024A000F9E7402301200B80FFF7D0F900232360D8
:1024B00010BDC0462C0200203002002070B5234C15
:1024C0002378002B40D101332370FFF7B1FF0028A0
:1024D00001D000F0ABFAFFF769F8002801D0FEF751
:1024E000C3FC00F079F9002801D000F0D5F800F025
:1024F000DFF9002801D000F0D0F800232370EFF3BB
:102500000583002B20D1EFF3108272B6104D28689E
:10251000002803D00F4C2178002903D0002A13D1C2
:1025200062B611E00123237043692B60002B01D0B8
:10253000996101E008490B60002A00D162B60025CC
:10254000836845779847257070BDC04639020020E2
:102550004C0200205002002048020020EFF31080BF
:1025600072B643425841C0B27047002800D062B6EC
:102570007047FFFF10B5FFF7F1FF0C4A1468002CFD
:1025800010D063691360002B02D000229A6101E031
:10259000074A1360FFF7E9FF002320006377A36871
:1025A0009847E8E7FFF7E1FF10BDC0463C02002076
:1025B0004002002010B5FFF7DDFF10BD164930B511
:1025C0000B68002B02D18360C36009E004681A68BD
:1025D000944207D20025121B8360C560D8601A6040
:1025E000086016E002681C689968121B02600029E6
:1025F0000CD00C680B00A242F4D28160C968A21A08
:10260000C160D860C16888601A6002E08160C36000
:1026100098600223037530BD4402002070B5174D49
:102620002C68002C19D02368002B02D0013B2360BA
:1026300013E0A268002A00D0D360002120692A603C
:10264000036821751B68220098476368002BE7D058
:1026500023602000FFF7B2FFE2E7FFF77FFF0022D1
:10266000074B1C681A60FFF780FF002C05D0A56897
:102670002000FFF7A3FF2C00F7E770BD4402002005
:102680005402002010B5034A136801331360FFF7AA
:10269000C5FF10BD50000020704770471B4B1C4AFF
:1026A00019781C4B082901D1002102E00A2903D125
:1026B0002E311160132206E00C2901D1283100E0EF
:1026C0003C21116012221A60134B1A78134B002A16
:1026D00001D0002200E001221A60114B1A78114B40
:1026E000012A01D880220CE0042A01D8842208E0C3
:1026F000082A01D8852204E0102A01D8862200E0A9
:1027000087221A600122084B1A70704780FEFF1F53
:1027100008B003400CB003405902002020B0034031
:1027200081FEFF1F24B003405802002070B58025B1
:102730008026ED02F6000B4C23682B4201D0FFF7F8
:10274000C3F82368334201D0FEF79EFF23681B05C0
:1027500001D500F051F82368DB04ECD500F0B8F89F
:10276000E9E7C0463480044010B5FFF7DFFFFFFF04
:102770000022014B1A607047008104407047FFFF40
:10278000EFF31380002821D1EFF31083002B1FD12A
:10279000EFF3058100290FD018000F290ED90B0087
:1027A000103B0C4A9B089B009B18032218680A40A8
:1027B000D200D040C0B201E080204000EFF311838E
:1027C000002B05D0984203D9180001E001204042B7
:1027D0007047C04600E400E0054B1878054BC0B2D6
:1027E0001A78D3B2984200D24030C01A7047C0461F
:1027F000C50200205B02002030B5234A13799B06F6
:1028000011D5224BD479187819000130E4B2002395
:102810003F2800DC03001E480078834203D01D4897
:10282000C454DBB20B70D1781748C9B24BB2002B3D
:1028300017DA03795BB2002B13DA174B174C1D78AC
:102840002378DBB29D4202D16C23C37009E00133CF
:10285000272B00D900231248C05CDBB2C0B2D07174
:102860002370402319420ED0117919420BD0002158
:102870000C4B19700C4B1B688B4202D00B4909782A
:1028800019722C23D37030BD00B00640C502002061
:102890005B02002084020020CC020020C60200203F
:1028A0005C0200205A020020C8020020C40200205E
:1028B000054B1878054BC0B21A78D3B2984200D2B3
:1028C0004030C01A7047C04640030020D5020020A7
:1028D00030B52C4A13799B0623D52B4BD479187825
:1028E00019000130E4B200233F2800DC0300274830
:1028F0000078834203D02648C454D8B208702549D2
:10290000086800280DD024490978C9B28B4201D348
:102910005B1A01E05B1A4033272B02DD1F4B1B784B
:102920000371D1781748C9B24BB2002B17DA03797B
:102930005BB2002B13DA1A4B174C1D782378DBB2ED
:102940009D4202D16C23C37009E00133272B00D9CB
:1029500000231448C05CDBB2C0B2D07123704023A6
:1029600019420ED0117919420BD000210E4B19706B
:102970000E4B1B688B4202D00D49097819722C232B
:10298000D37030BD00C0064040030020D5020020B7
:10299000FF020020D002002041030020FE020020A0
:1029A00048030020D6020020D40200204403002067
:1029B0003F03002030B585B072B670224121154B1F
:1029C0001A70154A1170154A3239117080221A7026
:1029D0001A7852B2002AFBDA114B186862B6114B12
:1029E000984201D80A23584301AC0A22210000F082
:1029F0001EF800230C48E15C0500002905D05A00B0
:102A00008218013351800A2BF5D101335B002B7002
:102A100005B030BD00000240070002400600024041
:102A2000080002407F9698002CFFFF1F7047F8B502
:102A300006000D00170000243900300000F0BAF83D
:102A40000B003733DBB2092901D83031CBB230006B
:102A50002B55390000F028F8061E01D00134EBE7B1
:102A60002B1958702B005A1B944206DD1A78295DE9
:102A700019702A550133013CF5E72800F8BDFFFF26
:102A800002B4714649084900095C49008E4402BC01
:102A90007047C04603B47146490840004900095ACE
:102AA00049008E4403BC7047002243088B4274D314
:102AB00003098B425FD3030A8B4244D3030B8B423F
:102AC00028D3030C8B420DD3FF22090212BA030C48
:102AD0008B4202D31212090265D0030B8B4219D329
:102AE00000E0090AC30B8B4201D3CB03C01A524149
:102AF000830B8B4201D38B03C01A5241430B8B4291
:102B000001D34B03C01A5241030B8B4201D30B0379
:102B1000C01A5241C30A8B4201D3CB02C01A5241A0
:102B2000830A8B4201D38B02C01A5241430A8B4263
:102B300001D34B02C01A5241030A8B4201D30B024C
:102B4000C01A5241CDD2C3098B4201D3CB01C01A66
:102B5000524183098B4201D38B01C01A5241430970
:102B60008B4201D34B01C01A524103098B4201D35E
:102B70000B01C01A5241C3088B4201D3CB00C01ACB
:102B8000524183088B4201D38B00C01A5241430843
:102B90008B4201D34B00C01A5241411A00D2014668
:102BA000524110467047FFE701B5002000F006F8DB
:102BB00002BDC0460029F7D076E770477047C0468F
:102BC0001C2101231B04984201D3000C10391B0A5D
:102BD000984201D3000A08391B09984201D3000921
:102BE000043902A2105C40187047C0460403020278
:102BF0000101010100000000000000000B0010B501
:102C00000100180000F002F810BDFFFF70B5054C80
:102C100005001300201E04D00A000220290000E055
:102C200000BF70BD000000000E4B70B500251E00F7
:102C30000D4CE41AA410A54204D0AB00F3589847F9
:102C40000135F8E700F030F9084B00251E00084C6C
:102C5000E41AA410A54204D0AB00F35898470135FC
:102C6000F8E770BDB42E0000B42E0000B42E0000B2
:102C7000BC2E000003008218934202D01970013369
:102C8000FAE770470023C25C0133002AFBD1581ECB
:102C90007047FFFF0000000000000000850D0000ED
:102CA000A90D0000610E0000590E0000510E000039
:102CB000490E0000410E0000090E0000210E000028
:102CC000010E0000F70D0000ED0D0000E10D000009
:102CD000D10D0000C10D0000B90D0000490D00002C
:102CE000550D0000610D00006D0D0000910D0000FC
:102CF000790D0000420000F840A0044001000000EF
:102D0000420000F844A0044002000000C00000F8A7
:102D100000C0044001000000000000F804900440DE
:102D200002000000000000F80890044004000000C9
:102D3000C00000F81CC0044080000000C00000F883
:102D400010C0044010000000C00000F808C004409B
:102D500004000000C00000F80CC00440080000009F
:102D6000800000F80CB0044008000000800000F86B
:102D700010B0044010000000800000F818B00440BB
:102D800040000000800000F81CB0044080000000FB
:102D9000800000F814B0044020000000C00000F8DB
:102DA00004C0044002000000800000F800B00440AD
:102DB00001000000400000F800A0044001000000F5
:102DC000400000F804A0044002000000400000F8A9
:102DD0000CA0044008000000400000F808A00440D7
:102DE00004000000C00000F814C0044020000000EF
:102DF000C00000F818C0044040000000800000F847
:102E000004B0044002000000800000F808B0044054
:102E100004000000020100F850D00440100000003F
:102E2000020100F854D0044020000000030100F823
:102E300078D0044040000000151915190001000069
:102E400082FEFF1F120000000002000094FEFF1F20
:102E5000730000000022010007FFFF1F2100000097
:102E600000210100F0FEFF1F090000000003000028
:102E700028FFFF1F000000000103090444FEFF1F9C
:102E8000000000000203090456FEFF1F00000000BE
:102E9000030309042CFFFF1F0000000000000000D6
:102EA0000000000000000000F8B5C046F8BC08BCF7
:0C2EB0009E46704739040000990C000099
:042EBC00F8B5C0465F
:102EC000000000001203640065006E006B006900E2
:102ED0006F0074006F001003740077006F006800CB
:102EE0006F007300740000009C2C000000000000C4
:102EF000E80300000000000001000000FFFFFFFFEA
:102F00000A041201100100000040C016850473027B
:102F10000102030109027300020100C0320904002A
:102F2000000201030000072401000125000624021D
:102F30000101000624020202000924030103010228
:102F400001000924030204010101000905040240F3
:102F50000000000005250101010905830240000071
:102F6000000005250101030904010002030000001F
:102F70000921110100012221000705810340000100
:102F80000705020320000206C9FF0904A15C7508B9
:102F9000150026FF0095400975810295200976915C
:102FA0000295040976B102C0040309040C03000071
:102FB0000000000000000000000000000000000011
:042FC000000000000D
:00000001FF
