:1020000000800020D1750000CF750000CF75000062
:1020100000000000000000000000000000000000C0
:10202000000000000000000000000000CF7500006C
:102030000000000000000000CF75000025760000C1
:10204000CF750000CF750000CF750000CF75000080
:10205000CF750000CF750000CF750000193D00005E
:10206000CF750000F16D0000CF750000CF75000046
:10207000CF750000CF750000CF750000CF75000050
:10208000CF750000CF750000CF750000CF75000040
:1020900000000000CF750000CF750000CF75000074
:1020A000CF750000CF750000CF750000CF75000020
:1020B0000000000010B5064C2378002B07D1054B1B
:1020C000002B02D0044800E000BF0123237010BDA4
:1020D000A0010020000000005C850000044B10B54A
:1020E000002B03D00349044800E000BF10BDC046E8
:1020F00000000000A40100205C85000070477047CC
:1021000010B503681B68984710BD0B000833DBB29D
:1021100010B5072B09D801229A401300DD22134283
:1021200003D003681868FFF7EBFF10BD10B5036814
:102130001B68984710BD0B000833DBB210B5072BA6
:1021400009D801229A401300DD22134203D003680C
:102150001868FFF7EBFF10BDF0B53B4F85B03800B6
:102160003A4901F00FFA3800394901F00EFA394DB9
:1021700039496B6D00241868384E0368DB6998474D
:102180002B0058331C802B005A331C706C662C6655
:10219000AE66EE6605F04EFA2B00FC3358601C600C
:1021A00003232A006C6770352B7003952C4DF83291
:1021B0006B6D1470186801F09DFB2B0058331C8068
:1021C0002B005A331C706C662C66AE66EE6605F00A
:1021D00031FA2B002A00E121FC3358601C60039B7C
:1021E0006C677035F8321F481C702C7049021470EF
:1021F00001F012F9380001F0CBF9002803D10130C9
:1022000005F05EFAF6E7184C200004F01EFC2000F2
:1022100004F0E6FD2000322104F0BCFD0021642220
:102220000B000091200004F092FD200004F060FCFF
:10223000C82005F045FA200004F0D2FD200004F08B
:1022400057FC05B0F0BDC04650040020040000203B
:1022500024000020BC010020127A0000FFFF0000D3
:10226000CC02002030040020E4030020F7B50193E5
:1022700008AB0C00050016001978E02C1ED80139B7
:10228000CBB20F2B19D861B2002916DA1943436D6E
:10229000C9B21868FFF734FF7F2731006B6D3940F2
:1022A0001868FFF72DFF10239C43C02C05D001991F
:1022B0006B6D39401868FFF723FFF7BDF72CFCD989
:1022C00021005430FFF721FFF7E7F7B5019308AB82
:1022D0000C00050016001978E02C1ED80139CBB28D
:1022E0000F2B19D861B2002916DA1943436DC9B210
:1022F0001868FFF71BFF7F2731006B6D39401868A6
:10230000FFF714FF10239C43C02C05D001996B6D7F
:1023100039401868FFF70AFFF7BDF72CFCD92100F8
:102320005430FFF708FFF7E7036810B50400002BEF
:1023300001D074309847230075331878DF280AD805
:10234000B02859D02CD8902845D0A02800D16BE0D7
:10235000802833D010BDE0381F28FBD805F038FCAA
:102360004E00FAFFFAFFFAFFFAFFFAFFFAFFFAFF50
:10237000FAFFFAFFFAFFFAFFFAFFFAFFFAFFFAFF95
:10238000680076007E009000FAFFFAFF9200FAFFE4
:102390003D004400420046004800FAFF4A00940015
:1023A000C02843D0D028D5D1E369002BD2D0220059
:1023B00074347632117820789847CBE7A368002BE5
:1023C000C8D022002100773274347631127809782F
:1023D00020789847BEE7E368F1E7A36B002BB9D0FC
:1023E0009847B7E7E36BF9E7236CF7E7636CF5E72A
:1023F000A36CF3E7E36CF1E76369E0E7236A002B82
:10240000A8D0220077321178FE22C9019201114032
:1024100022007F20763212787434024011431B4A26
:1024200020788918984795E72369C8E7A369BCE72E
:10243000636A002B00D18DE7220076321188802953
:1024400000D9802120007830984783E7A36A002BC9
:1024500000D17FE77634207898477BE7E26A002A4C
:1024600000D177E7230077331878FE237F21C0015E
:1024700076349B010340207808401843904769E771
:10248000236BE4E7636BA9E7236DA7E700E0FFFF99
:1024900073B50600703632780B00D1070400CD0FFB
:1024A000002927D001218A4324D0020075321178F7
:1024B0000A00803AD2B2602A20D802007432107822
:1024C000984202D05A425341DDB233785B08022B66
:1024D0000ED0032B0FD0012B0CD123002200773319
:1024E00076321B78127800902000FFF7EEFE01E0B4
:1024F000002DF2D173BD002DFCD1EEE70800F038BD
:102500000F28F7D805F050FB0D442E1FF6F608F6FD
:1025100008F6080808F6080820005430FFF70BFEFC
:10252000E8E72300250076331E887835802E00D911
:102530008026AE19B542DDD0636D29781868FFF7A3
:10254000F5FD0135F6E7230076331D78636DF32141
:102550001868FFF7EBFD7F212940636D1868FFF7CE
:10256000E5FDC7E7230077331D78013B1978636DDC
:10257000ED0118680D43F221FFF7D8FD7F262900F1
:10258000636D31401868FFF7D1FDE9093140E4E798
:10259000230076331D7870232D011D4023000F2268
:1025A00077331B78F12113401D43636D1868FFF7E3
:1025B000BDFD2900636DD1E7036810B50400002B51
:1025C00001D074309847230075331878DF280AD873
:1025D000B02859D02CD8902845D0A02800D16BE045
:1025E000802833D010BDE0381F28FBD805F0F0FA62
:1025F0004E00FAFFFAFFFAFFFAFFFAFFFAFFFAFFBE
:10260000FAFFFAFFFAFFFAFFFAFFFAFFFAFFFAFF02
:10261000680076007E009000FAFFFAFF9200FAFF51
:102620003D004400420046004800FAFF4A00940082
:10263000C02843D0D028D5D1E369002BD2D02200C6
:1026400074347632117820789847CBE7A368002B52
:10265000C8D022002100773274347631127809789C
:1026600020789847BEE7E368F1E7A36B002BB9D069
:102670009847B7E7E36BF9E7236CF7E7636CF5E797
:10268000A36CF3E7E36CF1E76369E0E7236A002BEF
:10269000A8D0220077321178FE22C90192011140A0
:1026A00022007F20763212787434024011431B4A94
:1026B00020788918984795E72369C8E7A369BCE79C
:1026C000636A002B00D18DE72200763211888029C1
:1026D00000D9802120007830984783E7A36A002B37
:1026E00000D17FE77634207898477BE7E26A002ABA
:1026F00000D177E7230077331878FE237F21C001CC
:1027000076349B010340207808401843904769E7DE
:10271000236BE4E7636BA9E7236DA7E700E0FFFF06
:1027200073B50600703632780B00D1070400CD0F68
:10273000002927D001218A4324D002007532117864
:102740000A00803AD2B2602A20D80200743210788F
:10275000984202D05A425341DDB233785B08022BD3
:102760000ED0032B0FD0012B0CD123002200773386
:1027700076321B78127800902000FFF777FD01E099
:10278000002DF2D173BD002DFCD1EEE70800F0382A
:102790000F28F7D805F008FA0D442E1FF6F608F6B4
:1027A00008F6080808F6080820005430FFF7ADFCCA
:1027B000E8E72300250076331E887835802E00D97F
:1027C0008026AE19B542DDD0636D29781868FFF711
:1027D00097FC0135F6E7230076331D78636DF3210E
:1027E0001868FFF78DFC7F212940636D1868FFF79B
:1027F00087FCC7E7230077331D78013B1978636DA9
:10280000ED0118680D43F221FFF77AFC7F262900BD
:10281000636D31401868FFF773FCE9093140E4E764
:10282000230076331D7870232D011D4023000F22D5
:1028300077331B78F12113401D43636D1868FFF750
:102840005FFC2900636DD1E71023010099430B0061
:1028500030210200884301000120802905D0E02AB0
:1028600003D0C03B58425841C0B2704743B2002B1E
:102870000BDA03000C33DBB2012B06D9FD2804D0A0
:10288000EF2801D80F23984370470020FCE710235E
:10289000010099430B003021020088430100012010
:1028A000802905D0E02A03D0C03B58425841C0B22D
:1028B000704743B2002B0BDA03000C33DBB2012B61
:1028C00006D9FD2804D0EF2801D80F23984370477C
:1028D0000020FCE7F8B50121494800F0F1FF494D1F
:1028E000494B4A4A6B651A602B00002458331C8000
:1028F0002B005A331C702B000322454F7033AF66F8
:10290000EF662C606C60AC60EC602C616C61AC615B
:10291000EC612C626C62AC62EC622C636C63AC6345
:10292000EC632C646C64AC64EC642C652C666C66A3
:102930001A702B00F83321006C671C707D3235480B
:1029400005F028FB2B00FC33DC605C609C602B00F6
:10295000314EFE333200DC812800304905F01CF98D
:102960002F4D304B26496B6519602B0058331C8066
:102970002B005A331C702B0003227033AF66EF66B6
:102980002C606C60AC60EC602C616C61AC61EC61E3
:102990002C626C62AC62EC622C636C63AC63EC63C3
:1029A0002C646C64AC64EC642C652C666C661A70E8
:1029B0002B00F83321006C671C707D321A4805F03B
:1029C000E9FA2B00FC33DC605C609C602B00FE337A
:1029D0003200DC812800154905F0DEF8144C522342
:1029E0000B220121200004F09BF932001149200044
:1029F00005F0D2F804F01EFE0F4B1860F8BDC0467B
:102A000004040020BC010020FC0300203C0E002038
:102A1000FFFF00003402002000000020FD20000025
:102A2000CC0200200004002044030020FF2000000E
:102A3000E40300202F6A0000E00300200023F0B52B
:102A4000B04AB14C1370230058331B7885B0029301
:102A5000102B57D8636D186803681B6998470028C6
:102A600050D022000121FF32937B8B439373636D1F
:102A7000186803685B699847C5B20600FD2D41D010
:102A8000636E002B00D01CE1A04B1D702300593356
:102A90001F783800FFF7EAFEFFF7D6FE002808D0BF
:102AA000330606D4994B01211F7023005C331D703F
:102AB000616623005B331D782800FFF7D7FE924B39
:102AC0000200DF2800D983E0B02800D1EBE000D974
:102AD00093E0A02800D1E6E0EF210140802900D159
:102AE000E1E023000120FF339A7B104340B298734A
:102AF0006368002B00D098470022834B5A661A6601
:102B000059331A700127824800F0BAFE011E00D125
:102B10003DE3804C230058331B780293102BF2D8EE
:102B2000636D186803681B6998470028EBD0220082
:102B3000FF32937BBB439373636D186803685B69D3
:102B40009847C5B20600FD2DDDD0636E002B00D086
:102B50002EE2714B1D70230059331B78180003932C
:102B6000FFF7A7FEFFF793FE002808D0330606D430
:102B7000694B039A67661A7023005C331D7023004B
:102B80005B331D782800FFF794FE624B0200DF28BC
:102B900000D985E1B02800D1FCE100D9A6E1A02848
:102BA00000D1F7E1EF210140802900D1F2E12300BB
:102BB000FF33987B384340B298736368002B00D092
:102BC00098470022534B5A661A6659331A709AE78F
:102BD000E0381F2885D804F0E7FF66848484848465
:102BE00084848484848484848484681566158484BD
:102BF0004E684E4E4E4E4E844E4EEF210140C0293F
:102C000000D06EE702211966186E596E01388142B4
:102C100054D3190075310A700F2215401A0019009B
:102C20007432013515701A005C31097876321170F2
:102C300019000022180077310A700121FC305A6611
:102C40001A66F833016019702F4B1A00753211782B
:102C5000902920D177331B78002B01D1803313705A
:102C6000294B029A74331B78934276D0029B002B37
:102C700073D0002575E0230075331A7022000023FD
:102C80007432137022007632138022000121F83250
:102C90001170636623661C4B75331B78803BDBB277
:102CA000602BDDD959E00321ADE7802121662100A9
:102CB00000205931783408702270A5E70131596637
:102CC00020E7020672D52800F0380F286ED804F0ED
:102CD00075FF256D6D6D6D6D6D2508080808086D13
:102CE00008082300220075331D70002376321380FC
:102CF00022007432137022000133FC321360F83466
:102D00002370A1E7DC030020BC0100201702002093
:102D100004040020CC020020270300202200783287
:102D20001278F02A02D0F72A00D0DAE65A1CE3180B
:102D300078331D70230076331A802300AC49743336
:102D400019802300FC331A6023000122F8331A7023
:102D500000236366236659342370A648FFF7E4FA1C
:102D60000125A44C02992000FFF792FB002D00D111
:102D7000C8E6230075331D78230074331F782300C1
:102D8000773476331E782478F82D00D081E0002344
:102D9000994A137004F04EFC984B186023003200DF
:102DA000290097480097FFF761FAABE622005B32F3
:102DB0001278F02A01D0F72A29D1E218783215705A
:102DC000276E7A1E934262D323005B331E78F02E67
:102DD00001D0F72E1ED12300F022F7331D781A7090
:102DE000884B703A63672300FC331A6023007F3AF4
:102DF000F83320001A70FFF797FA2300F722783390
:102E00001A70230079331D70022363667AE6E21894
:102E10005B32D4E73000FFF729FD230075331870CB
:102E20000500FFF711FD0023984202D00F33334015
:102E30000133220074321370220023005C321278B6
:102E400076331A700023032F02D123005D331B78E1
:102E50002200773213700023636623662300012269
:102E6000F8331A70B02D06D008D8A02D03D0EF206B
:102E70000540802D08D159342670E5E6E02DFAD0C2
:102E8000EF200540C02DF6D00023593438E7013338
:102E9000BBE70123584A1370F02D00D132E67DE7DD
:102EA000E0381F2800D982E604F092FE740081FE0B
:102EB00081FE81FE81FE81FE81FE81FE81FE81FE1A
:102EC00081FE81FE81FE81FE81FE81FE760025006D
:102ED0007400250081FE81FE5D0076005D005D00CE
:102EE0005D005D005D0081FE5D005D00EF21014041
:102EF000C02900D05BE602211966186E596E0138B0
:102F0000814252D3190075310A700F2215401A0000
:102F100019007432013515701A005C310978763267
:102F200011701900002277310A7019005A66FC31BD
:102F30001A66F8330F601F70314B1A007532117822
:102F400090291FD177331B78002B01D18033137068
:102F50002B4B029A74331B78934273D0029B002B45
:102F600070D0002572E0230075331A702200002310
:102F7000743213702200763213802200F8321770F8
:102F8000636623661E4B75331B78803BDBB2602B78
:102F9000DED957E00321AFE7802121662100002020
:102FA0005931783408702270A7E701315966AAE5D3
:102FB000020672D52800F0380F286ED804F0FEFD06
:102FC000246D6D6D6D6D6D2408080808086D080886
:102FD0002300220075331D700023763213802200F7
:102FE000743213702300F834FC331F602770A3E79A
:102FF00000F0FFFFBC010020DC030020E003002004
:10300000CC02002000F08000220078321278F02AF2
:1030100002D0F72A00D0CAE55A1CE31878331D7095
:10302000230076331A8023006A4974331980230001
:10303000FC331A602300F8331F7000236366236695
:10304000593423706448FFF7B7FA3D00624C029987
:103050002000FFF765FB002D00D154E523007533F8
:103060001D78230074331B78029323007734763362
:103070001E782478F82D00D083E00023574A13707F
:1030800004F0D8FA564B1860029B320000932900D6
:1030900023005448FFF719F935E522005B32127816
:1030A000F02A01D0F72A29D1E21878321570226E61
:1030B0000392013A934262D323005B331E78F02ED1
:1030C00001D0F72E1DD12300F022F7331D781A709E
:1030D000454B703A63672300FC331A6023002000DD
:1030E000F8331F70FFF768FA2300F72278331A705D
:1030F000230079331D700223636604E5E2185B3216
:10310000D4E73000FFF7D5FB2300753318700500B6
:10311000FFF7BDFB0023984202D00F333340013349
:10312000220074321370220023005C32127876334E
:103130001A70039A0023032A02D123005D331B78FF
:103140002200773213700023636623662300F8336E
:103150001F70B02D06D008D8A02D03D0EF20054059
:10316000802D08D159342670E6E6E02DFAD0EF2004
:103170000540C02DF6D0002359342370DCE601331E
:10318000BAE7164B1F70F02D00D1BCE47CE7134B5F
:10319000134C1B78002B0DD06423144D02000093B8
:1031A0000300280003F0D3FD280003F0A1FC04F085
:1031B00041FA206004F03EFA2368C01A142806D9A8
:1031C0000A4C200003F00CFE200003F091FC05B037
:1031D000F0BDC04600F0FFFFCC020020DC03002061
:1031E000E0030020BC01002000F08000E403002088
:1031F00010B50100014800F07DFA10BD5004002018
:10320000012010B50021404202F0D2FD10BD70B582
:1032100000F0EAF800240500AC4205D0200001349B
:1032200000F0A4FEE4B2F7E770BD0000F0B593B083
:1032300001AC0D0016000021422220001F0004F006
:10324000A9FE0020412F4AD926486B1C0890264829
:10325000A570208468460730C577A57208252349E4
:10326000DBB2A180224902A821812249C377A18132
:10327000FD392148FF3961741F31A1740A901F493B
:103280000BA805709120069101210001217660852F
:1032900003310CA80170E1762D31194A69440B7095
:1032A000A3763323228002220A216B441A700DABCD
:1032B0001970144BE270A3863B236B441A70A273FF
:1032C0000FAB3E321A703F23393A6B441A700E4BE3
:1032D000210030003B32109304F040FE422013B036
:1032E000F0BDC046240202052406000002020000D0
:1032F00009040000010200000705800320010524E5
:10330000080B0000070500000580024008B4024BCE
:103310009C46103808BC60472D32000013B56B4640
:103320000268D9710733546819000122A04716BDFD
:1033300010B5007E0024FF2805D000F0EBFD041E30
:1033400001D104F0B7F9200010BD13B5007EFF28AD
:1033500002D10120404216BD6B46DC1D210000F069
:10336000F9FD0028F5D02078F5E713B5007EFF2899
:1033700009D06B46DC1D0122210000F0D7FD00289A
:1033800001D0207816BD01204042FBE710B5007E39
:10339000FF2801D000F0EAFD10BD10B5037E00202B
:1033A000FF2B02D0180000F037FE10BDF8B5037EE9
:1033B00005000E0017000020FF2B11D01400002C78
:1033C0000DD0287E00F07EFD002808D022003100BC
:1033D000287E00F007FE241A3618002C01D1381B75
:1033E000F8BD04F067F9EAE7014B18787047C0466A
:1033F0004C0400200023FA2243604361054B9200F5
:1034000082601A0030330361FF23083202600376C2
:103410007047C0469081000010B5037EFF2B0DD190
:10342000074A1378002B09D101211170010003769E
:10343000044B10314361044800F0F8F810BDC04659
:103440004C040020808100005004002007B50029B2
:103450000BD1002809D1694600F04CFD9623009A53
:10346000DB009A4201D100F09BFC07BD10B5024879
:10347000FFF7C0FF10BDC04630040020F7B58446FA
:103480000020040063461E191B5D002B6ED01A003D
:103490004032D2B2012A42D9F42B40D85AB2002A83
:1034A0001CDB01228026324D36015D19B54236D330
:1034B000A41880225202934252D31E2856DC2D4A71
:1034C0002D4E9B189D0A4200AD198D529B052B4D28
:1034D0009B0D8A185B1902305380D3E71A001F2511
:1034E000AA43C02A1DD12A002B401D3A751CB618CC
:1034F00001963F272E780096BE43802E0FD1009E66
:103500009B013E403343019E0135AE42F1D1022A78
:1035100017D1F0261D00F600803DB542C2D301341C
:10352000B0E70F221D009543E02D02D113400C3A65
:10353000DCE707221D009543F02DF0D11340033A3C
:10354000D4E7032A04D1F8260D4D36025D19E4E7CD
:103550008025084A6D039A18AA42E0D20422A1E706
:10356000202803D04200535201308BE7FEBDC046F5
:103570000028FFFF0000FFFF00D8FFFF00DCFFFF77
:1035800000F8FFFFFC3081627047FC30C162704779
:1035900010B502F06FFA10BD70B5040088B01E4E71
:1035A00003AD31001222280004F0D8FC230007CD1F
:1035B00007C32A6831001A60AA88092625009A8064
:1035C000183532006846123104F0C8FC32006946F2
:1035D000280004F0C3FC114B6561E435EB618022E7
:1035E00023002000FE335200DA8331300133FF3AEA
:1035F000DA7700211F32FF3004F0CCFC084B0422A4
:103600006B62084BAB62084BEB6200232B635133B8
:10361000FF33E25408B070BDE781000009000001EB
:1036200009040000C4810000CD8100000300F0B552
:10363000FE3385B001935A8B43690E009C18019BA1
:1036400005009B8B9B1A0200FF320292517F326869
:10365000300017689BB22200B8478446002802D188
:10366000002005B0F0BD2300A827634403937268CF
:10367000029B7F0003998C422DD2617804291AD1D4
:10368000E678002E12D102990298497F01314177E4
:10369000002A0BD0E95D0B2908D8080048308000CB
:1036A00042512172EA5D0132EA5532002178002947
:1036B000D6D06418DEE70529F8D1A1787F2906D98C
:1036C000997F481C9877A0780143A170EEE7D97FD5
:1036D000481CD877F7E7019B588B604480B2588329
:1036E0006B69FF359870000AD8706A7F01201A71E3
:1036F000B7E7000070B504000D000126FFF74CFF8E
:10370000E121064BA671A38049020548FFF784FE1C
:10371000280000F007FB300070BDC046EF0200003B
:1037200030040020F0B5FC30056B8BB08C1C002DF4
:1037300028D102A800F03AFB0190019AEBB29A421C
:103740001BD9134F1022390006A804F007FC02AB66
:103750005E5D10220F2302A989183340CB5C06A8B6
:103760006380390004F0FAFB102202AB36119B187B
:103770009B5D013523800434DFE7019B5800C0B214
:103780000BB0F0BD21002800FFF778FEF7E7C04638
:10379000D681000010B50400002912D0032921D0E1
:1037A000A8235B00C35C00208B421AD90B002100C8
:1037B00048339B0055311859FF31FFF75FFEC0B207
:1037C00006E00300FC335A6AAA235B00C2520120C0
:1037D000C02301309B0040001843AF3BFF3BE05249
:1037E000E01810BD01005331FF31FFF79BFFEFE7F9
:1037F0000048704750040020014B58697047C0468C
:103800005004002010B50A0001000248FFF7C2FF73
:1038100010BDC04650040020024B1868002800D09C
:1038200000697047E405002070B508480D00046881
:1038300011001A0004AB20001B88002C04D064691E
:10384000201E01D02800A04770BDC046E40500201E
:1038500010B5074C0800246811001A0002AB1B8841
:10386000002C03D0A469002C00D0A04710BDC04696
:10387000E405002000207047012040427047704757
:10388000002110B5080000F0F9FE10BD07B56B4629
:10389000D9710021DA1D0800012300F07BFF0EBD65
:1038A00013B56B460021DC1D22000123080000F047
:1038B00013FF002801D0207816BD01204042FBE70D
:1038C000FA230A0000219B0010B58360084B040016
:1038D00041604161180008302060200030332276BA
:1038E00023611022193004F055FB200010BDC046A2
:1038F00004820000010010B502481031FFF796FE67
:1039000010BDC04650040020F0B593B0019218AA33
:1039100012780090059219AA12780F0006920F22D1
:10392000057E2E006A430D36039211329219520021
:103930000292019A002A00D1E4E0029A9A4200D948
:10394000DEE009AC1F220021200004F023FB7A1CDA
:103950000123A770D2B209276274227581229221B5
:103960006371A37167726373A7732374E377153769
:10397000039B7D435200E2829B19FF3A22765B0053
:103980000432E27661489B1808AA490005320735DF
:103990007600208061816082A183AE19D37708AB65
:1039A00006333612DE7722222100019804F0D6FA7F
:1039B000002324209C4607971C3F644663460799D2
:1039C0005A1C4C43A1B20391039C009922340E7EF1
:1039D0000199A4B2D3B294460C199E4233D39A00F3
:1039E000D2B2D11EC9B203910099951ECB18197E8F
:1039F000EBB2039D04932571049D0626A572551E06
:103A00002574049D0123A57409252670A67103362B
:103A10002673063E6070A770E3706171E0712772D3
:103A20006772E1726073A673E3736374E374217564
:103A30006575A075E67527766276039AA376E276B9
:103A400023776177B9E7092008AB04220021C01869
:103A500004F0A0FA069B09ADAB700223EB703E3375
:103A60002B71331D6B722623294FFF330D2220004B
:103A70006B8129002F802E7304F070FA2622012317
:103A8000039CFF322F34A4B203970492009A167E4F
:103A9000019A17199E4207D39A00033A0134013361
:103AA0003A70A4B2DBB2F1E7092008AB042200218E
:103AB000C01804F06FFA039B0D222B80059B290090
:103AC000AB700223EB703E332B71331D6B72049B82
:103AD00038006B812E7304F041FA01230D34A4B237
:103AE000009A127E9A4208D39A000199013A0A5527
:103AF00001330134A4B2DBB2F2E7029B9C4201D055
:103B000000230293029813B0F0BDC04609040000E0
:103B10000905000013B50024019480340094FFF7D8
:103B2000F3FE16BD08B4024B9C46103808BC604733
:103B3000153B0000034B1B68181E01D0603318783A
:103B40007047C046E8050020F7B501931E4B009270
:103B50001A680F00002A35D02C2319004143511850
:103B60000E6A002E00D1194E4343D3185D6A002D12
:103B700000D1174D2C2358431218946A002C00D101
:103B8000144C300004F0C8FA0200082800D90822BA
:103B90003100380004F0E2F9280004F0BDFA020018
:103BA000102800D910222900009804F0D7F920002D
:103BB00004F0B2FA0200042800D90422210001987E
:103BC00004F0CCF9F7BDC046E8050020C481000030
:103BD000388200004582000070B50F4E0400326844
:103BE000151E16D02C234343D5186B69002B02D029
:103BF0009847323528702C22624333689B18323341
:103C00001D78002D05D12B003A220221200001F061
:103C100043F8280070BDC046E8050020064B10B5EB
:103C20001B680400002B06D02C2060431818C36AC0
:103C30000B60038E138010BDE805002010B5002333
:103C40002022052101F028F80120404210BD00008B
:103C500070B50D0011001A00074B06001C6801200A
:103C6000002C08D02B3070432418E3690120002B6E
:103C700001D02800984770BDE805002010B5040069
:103C800008001900074B1A68002A08D02C23634348
:103C9000D2189368002B02D0029A984710BD0120D9
:103CA0004042FBE7E805002010B5040008001900B9
:103CB000074B1A68002A08D02C236343D218D36814
:103CC000002B02D0029A984710BD01204042FBE72A
:103CD000E8050020064B02001B6810B5002B06D03B
:103CE0002C2050431B181B69002B00D0984710BD97
:103CF000E8050020074B02001B68012010B5002BCF
:103D000007D02B3050431B189B690120002B00D09B
:103D1000984710BDE805002010B5002002F078FD9E
:103D200010BD00002023174A10B5D1690F200B43A6
:103D3000D361012214490B7813430B70134B19788C
:103D40008143197006211C782143197010490C78A1
:103D500022430A701A7802401A70602219780A43C6
:103D60001A700C4B0C4A5A805A78D209FCD1C122E5
:103D70000A4992008B581B021B0A8B5002F0DEFD91
:103D800010BDC04600040040584400413C4400417E
:103D900059440041000C00400640000000E100E0F2
:103DA00010B5FA2003F078F810BD00007FB56A4620
:103DB00001001000074B70CB70C01B68036000202F
:103DC00013581B681BBA0B5004301028F8D104B0EC
:103DD00070BDC0464C820000004870475C82000005
:103DE000F7B5234F0B00396806001400081E02D0F7
:103DF000012B01D00120FEBD15786D06AD0F012D00
:103E00001FD00020022DF6D15278012A10D0022AAC
:103E1000F0D1637921791B020B43072BEBD16B4661
:103E20009D1D2800134904F099F82B88124A03E0DD
:103E3000CA69002ADFD013782100300002F0A4FA0A
:103E4000D9E75378222BD5D1E37892781B0213431C
:103E50005A1E934130000B76210002F07DFA3A6839
:103E6000136A002BC6D0107E98472800C3E7C046CF
:103E7000EC0500204C0000204400002070B5050037
:103E800010350400280001F015FD3F2801D800205E
:103E900013E00020E17801F0FDFE0028F7D02800B3
:103EA00001F008FDE1783F2808D98E239B00E21835
:103EB000F93B0020FF3B01F00DFF70BD002001F039
:103EC000F9FEE4E710B5040001F0D4FD002801D1AB
:103ED000002010BD01F0D6FD0028F9D1AE2001234D
:103EE000800044430248001900791840F1E7C046B9
:103EF000F00500200B00AE218900484310B50449AD
:103F0000072209180631180004F028F810BDC04631
:103F1000F0050020AE239B00584310B5024B103033
:103F2000C01801F0B0FC10BDF005002070B5AE2443
:103F3000A40044432000064E103092B2801901F0D4
:103F4000D9FC0500A019FFF799FF280070BDC046F5
:103F5000F0050020AE239B00584310B5024B1030F3
:103F6000C01801F0DCFC10BDF0050020F7B504001E
:103F700001F080FD002801D10020FEBD01F082FD8E
:103F8000051EF9D1AE20800044432600144F24368C
:103F9000F619300001F077FC0028EDD03B1928001D
:103FA0009978019301F076FE0028E5D09E239B00CE
:103FB000E418E71939004022300001F09BFC019B16
:103FC00004009978002808D003003A00280001F086
:103FD00081FE0028D0D02000CFE701F06BFEFAE789
:103FE000F005002070B5AE24A4004443094B2434EE
:103FF000E418050092B2200001F0C0FC0600200089
:1040000001F041FC3F2802D92800FFF7AFFF300044
:1040100070BDC046F0050020AE239B00584310B58C
:10402000024B2430C01801F045FC10BDF005002003
:1040300037B5AE22104C00212000920003F0AAFFF9
:10404000FF230E4A01256371E280002308222581A7
:1040500063812273802464002200009308492B00AE
:10406000084801F0F9FB2B0000952200064907489B
:1040700001F0F2FB37BDC046F005002000C2FFFF93
:104080002806002000060020280700201406002033
:1040900010B505220021074803F07CFF064801F017
:1040A00076FC064C200001F072FC0121200001F09A
:1040B0007AFC10BDF0050020000600201406002048
:1040C000F0B54B7907000C0085B0022B03D000251A
:1040D000280005B0F0BD8B79022BF8D11E4EB378C5
:1040E000002BF4D18B78092533700978641803E02C
:1040F0002378ED18ADB2E4186378242B1DD19542D6
:10410000F6D96378042B14D163790A2B11D1237863
:1041100038000393E118114B0193114B00930223D4
:104120001A0001F08FFD0028D1D0039B0E35ED1849
:10413000ADB23000FFF7A2FECAE7052BE1D12100A6
:10414000380001F065FD0028C1D0A3787370237892
:10415000ED18ADB2E418D4E7F0050020F205002018
:10416000F3050020F8B5050060200B00110012785F
:1041700000240240202A43D12A4F4A790E79387808
:104180001202324390423BD148782038032837D876
:1041900003F014FD02151838012B06D1072328005F
:1041A000214A02F0F1F801242AE0032BFBD11F4B36
:1041B000002BF8D000201C4900E000BFF3E7012BE2
:1041C000F1D1EBE7012B03D1280002F0C5F8EAE7B3
:1041D000032BE8D10124CD788A7821002D021543E4
:1041E0002E0013483D71A94301F0DDFB114B264021
:1041F000002BD8D06A08310000202240FFF726F9B2
:104200002000F8BD012BDFD0032BCCD10A4B002BB3
:10421000C9D08B78C97800200902194300E000BF9B
:10422000C1E7C046F0050020F605002000000000B0
:10423000140600204D34000000000000F7B5314C9A
:10424000019000911D00E3788B4205D0A3788B424A
:1042500011D000252800FEBD2B4F2C493800AAB2F2
:1042600001F08CFB2A4B002B0BD12A4B002B1DD1CC
:104270002000FFF703FEA378009A93421ED0012589
:10428000E8E763790026FF2BEFD0AE42EDD01F4B5D
:1042900062799B5D9A4207D1380001F004FB002847
:1042A00002D1617900E000BF0136EEE7380001F08D
:1042B000FAFA0028DCD100E000BFD9E7164B002B4A
:1042C00002D0002000E000BF0020FFF74FFE0028D2
:1042D000D5D1124801F0D7FA0028D0D1002DCED088
:1042E0003F232E001E401D42C9D1A178019801F044
:1042F000D1FC051EC3D033003200A178019801F033
:10430000E9FCA7E7F00500200006002028080020AF
:104310000000000000000000000000001406002063
:1043200010B58C220021024803F034FE10BDC046B7
:10433000A808002010B50020FFF7F2FF10BD000014
:10434000F7B50C00637907001100032B02D000269B
:104350003000FEBD07262279564312368E42F6D82B
:10436000184D69780029F2D1217861184878212800
:10437000EDD12800883001600878091812480190B2
:1043800012480090380001F05DFC0028DFD0A379CE
:10439000012B01D1E379EB7001232B71A3782B70F2
:1043A0002B0088331A68137AD1791B020B43A97842
:1043B000EB800029CCD040233800054A01F08AFC6C
:1043C000C6E7C046A8080020A9080020AA080020C7
:1043D000F0080020F7B5137815001F2206000C0026
:1043E0001A40012A01D0002430E05E4F29793A7842
:1043F0009142F8D1602218001040134212D02028B8
:10440000F1D1687801380A28EDD803F0E1FB2C00DF
:104410008E009400ECFFECFFECFFECFFECFF530090
:104420007B009A00012C01D001240FE06B78062B51
:10443000D9D1EB78212B0BD188373A68002AD2D01A
:1044400029003000137801F09FFF04002000FEBD1A
:10445000222BC8D1FFF7E0F90200FB8829003000C9
:1044600001F092FFF2E7012CDED1EB79A8791B0273
:104470000343EA78A978181C402B00D9402080B269
:10448000002914D0012B12D901240138364B39727E
:1044900080B200900020FFF7C7F92418A3B2002BC8
:1044A000A1D029003000314A01F06EFFBCE70024A2
:1044B0002E4BEEE7012C08D1EB79AA791B021343AE
:1044C0002B4A402B00D98EE7C8E7032CACD1EC79FE
:1044D000AB7924021C43EA78A978201C402C00D92F
:1044E0004020234B80B2002907D0012C05D91C782D
:1044F0008C4202D101381F4B80B200900020FFF7A0
:10450000A7F991E7012C00D08EE7E9781A4B797171
:10451000002B05D0002000E000BF002800D162E79A
:104520002900300001F018FF7EE7012C00D07BE766
:104530002300124A92E7012C00D075E72300104AAD
:104540008CE7012CECD0032C00D06DE7A9780D4B43
:104550003971002B00D167E7002000E000BF023C6A
:1045600074E7C046A8080020B1080020B008002069
:10457000F0080020F108002000000000AD08002035
:10458000AC0800200000000073B5134D0400A878AB
:104590006A7888420DD00024914208D10F4A012444
:1045A000002A04D000200E49DAB200E000BF20004B
:1045B00076BD9042F2D000220A4E9BB2110010004C
:1045C00000933300FFF744F9200040233200A9781C
:1045D00001F080FB0400EAE7A808002000000000CA
:1045E000B0080020F008002070B505001035040068
:1045F000280001F05FF93F2812D90020A17801F0CE
:1046000049FB00280CD0280001F054F9A1783F287C
:1046100007D92200393240230020FF3201F05AFB33
:1046200070BD002001F046FBFAE770B504002434A9
:104630000500200001F027F9002801D1002070BDFD
:104640000020697801F026FB0028F7D02E0079368B
:10465000FF3631002000402201F04CF96978041E39
:1046600008D003003200002001F034FB0028E5D020
:104670002000E4E701F01EFBFAE7000070B5DC253E
:104680006D0045432800064C1030001901F0FBF87E
:104690006419A27B637BD21AD2B2101870BDC046D7
:1046A00058110020DC235B0043430020094A70B509
:1046B000D518AC7884420CD010339818042201F03D
:1046C00019F904002800043CFFF78EFF60426041A6
:1046D000C0B270BD58110020F0B585B01D1E03900A
:1046E00001924AD0DC246400444322000095002556
:1046F000274B0932D3180293254E3719BB7B002B69
:1047000015D102990398FFF7CDFF002835D00F236C
:10471000787A184003F052FA3A3A34373708343787
:104720003737373734343708012233199A7336193B
:10473000717B009BB67B761A9E4200D91E00029BBD
:10474000F7B201313A005918019803F007FC104BF9
:10475000ED191B195A7B9619019AF6B2D2190192DA
:10476000009A5E73D21B00929A7BB24202D1002261
:104770005A739A73009B002BBED1280005B0F0BD80
:1047800002223319D2E703223319CFE70025F4E7D9
:1047900058110020F0B5DC2589B06D0006922A0082
:1047A000424307935B4B01929A1852780400161EFD
:1047B0006AD0019A09012432D21803924AB20292B5
:1047C0000F22002602990A43D2B20492019A0332C0
:1047D000D3180593079B9E4200D07CE0019B4D4877
:1047E000C018FFF722FF4FE00820404284463A09F4
:1047F00094446046032801D90E2A08D12900614358
:10480000444B5B1802990A43DA7004227FE00C20C3
:104810004042844694446046012804D802990A43E1
:10482000DA70032273E00F2A3CD1F02F02D10B3A49
:10483000DA706CE03B00022236489343F12B26D11C
:104840002B006343C0181300C370013303722900A7
:104850006143304841180B7ACA799A42BAD1002193
:10486000019A9A1812180132032B30D904220599A3
:10487000039801F083F82A006243264B9B1800221C
:104880001A72DA710428A5D0300009B0F0BD2B00EF
:104890006343C018F22F01D10323D5E70523C3706A
:1048A000033BD3E7049A5971DA70997102222EE022
:1048B0000329E9D85A18D770D8784A1CD2B2DA71CD
:1048C0000428C4D1F72FC2D10431D9701FE00133BD
:1048D0009170DBB2C7E7039800F0ECFF032800D823
:1048E0007CE7069B0B4A9F5D2B006343D318D97965
:1048F00001360029DCD10222DA71DA781F71042A2C
:1049000000D071E7F72F02D10132DA70033A1A7240
:104910009DE7C04658110020DC2213B50024002179
:104920005200094803F036FB012380220749009416
:10493000074800F091FF01238022064900940648B1
:1049400000F08AFF13BDC0465811002090110020CE
:1049500068110020101200207C11002010B51022D8
:104960000021054803F016FB044801F010F8044844
:1049700001F00DF810BDC04658110020681100204C
:104980007C110020F0B585B0039002924B790D00A8
:10499000012B03D00024200005B0F0BD8B79012B42
:1049A000F8D1CB79002BF5D109788CB26D186B78E2
:1049B000242B07D1029B9C42ECD82B78E418A4B29C
:1049C000ED18F4E7042BE5D16B79012BE2D1AB793B
:1049D000032BDFD11A4FBA787B781343EA7913435C
:1049E0000193D7D1AB783B702E78A419A4B2AE193D
:1049F0001EE0BB7010E0029B9C421DD87378052B13
:104A000012D13100039801F003F90028C2D0B37825
:104A1000DA09012AEDD17B703378E418F618019B8E
:104A2000A4B20133DBB201933378E418A4B2F618D0
:104A30002B79019A9342DED83800FFF7D5FDAAE71B
:104A40005811002000207047F8B51D4D1C00AB78B0
:104A500006008B4205D06B788B4212D000242000D8
:104A6000F8BD18491848A2B200F088FF174B002B78
:104A700002D0002000E000BF2800FFF7B5FD0124B0
:104A8000EDE72800FFF7D1FD0028F8D1104800F02D
:104A9000FAFE0028F3D1002CF1D03F2327001F405D
:104AA0001C42ECD13000697801F0F4F8041EE6D025
:104AB0003B003A003000697801F00CF9CFE7C046BE
:104AC0005811002090120020681100200000000002
:104AD0007C110020034B044A9A8700223E331A704F
:104AE0007047C046340B0020023A0000124B70B5EC
:104AF0001C0002251A00303425701C002C32117065
:104B000099689A6B3C348A1A9A622478002C04D1F2
:104B10000A4D9D871D003E352C70002908D0002AC3
:104B200006D01A7BD20904D02E33197801F004F98B
:104B300070BD2F33F9E7C046340B0020052000007C
:104B4000114B70B50500114C002B0DD0607BFFF7A9
:104B5000D1F8002808D10E4B0121A3873E342070E4
:104B60002800FFF7C3FF70BDA26BA3689B1A8022C9
:104B70009200934200D913002F3428002178054A6F
:104B80009BB201F0A7F8EEE7F53C0000340B0020E3
:104B90000727000034090020F0B5274C0600E18A01
:104BA000A56849BA89B289B0002903D0280003F06A
:104BB00019F881B22369207D1B0A0006184303BA45
:104BC0000393A36B1800029303F092F8039B0A006F
:104BD000C118029B194FED1A8023607B9B009D42F8
:104BE00000D91D0000953B00FFF748F8051E07DAC5
:104BF000FFF770FF01213000FFF778FF09B0F0BD2B
:104C00002E342478002810D105AF01000822380086
:104C100003F0C0F90723290038003E707B703C7117
:104C2000BD607D7100F080FFE8E783B23A002100AB
:104C3000300001F04FF8E1E7340B00203409002088
:104C4000C37D827D417A1B021343027A090211431C
:104C5000827A5BBA12041143C27A9BB212060A43EB
:104C600003D1581E834158007047C17B28290BD1BE
:104C7000017B0220C909F7D00120002BF4D09A4211
:104C80009B4158424000EFE72A29F5D1017B0220E1
:104C9000C909F1D0E8E70000054810B504003C342C
:104CA000217001003E303D31037001200A7010BDBB
:104CB000340B002010B540220021024803F06AF9AD
:104CC00010BDC046340B002010B540220021024820
:104CD00003F060F910BDC046340B002073B54B796A
:104CE0000500082B01D0002076BD8B79062BFAD168
:104CF000CB79502BF7D1162AF5D90F4C8A7823009F
:104D00002D331A700B782600C91823002E33019317
:104D100002232F361A00009600F094FF0028E2D0FC
:104D20002300002230331A7028001F23220031781C
:104D300000F0D0FF1720D7E7340B002073B5050033
:104D40001400012917D17F2312781340022B45D17B
:104D50006678012E42D1E378A1781B020B433DD146
:104D60002279414C200030300378042B05D111000A
:104D7000280000F0E1FF012012E021002E31097827
:104D800091420ED1022BF6D1A26BA3689B1AA362AB
:104D900022000323203203700A33280000F09AFF18
:104DA00076BD21002F310E789642E4D1002BE2D15E
:104DB0003100280000F0B2FF0028DCD131002800CB
:104DC00001F090FA0028D6D12300002230331A7067
:104DD00023002F33197822001F23DEE760230020F1
:104DE0001A40202ADCD16378FE2B1BD0FF2BD7D1B1
:104DF000E378A2781B0213438342D1D1E379A279ED
:104E00001B0213438342CBD1174B21001A00586376
:104E10003032986398873E3310701870280001F084
:104E20009BFAA8E7E378A2781B0213431AD1E3792F
:104E3000A2791B021343012B14D16A46D3710B4B89
:104E4000D61D002B02D0FEF775FE30703378002B94
:104E500008D0013B3370320001232100280001F00B
:104E600093FA88E700209BE7340B0020353B0000D5
:104E7000F0B5C24C1E00230030331F78050091B0FE
:104E8000012F00D18CE1032F00D102E2002F43D18A
:104E900022002F3212788A4201D0012015E01F2E05
:104EA00003D1B74A2068904211D023000422303346
:104EB0001A7023002E33280019782F3400F03CFF9D
:104EC0002800217800F038FF002011B0F0BDAD4A75
:104ED000A76222626268A763626222002C321770A6
:104EE00001221A70E77B02233A00A6689A436663A0
:104EF000282A2CD12000FFF7A3FE011E03D0280092
:104F0000FFF7F4FD08E0002E00D131E1282F00D09A
:104F1000A1E12800FFF740FE230030331B78022B6D
:104F2000BBD126002E362800317801F0DBF90028AD
:104F3000B3D1A368A06B3178834200D8D7E1227B3C
:104F4000D20900D1D3E1280000F0F6FEA5E7002E3B
:104F500010D0237BDB090DD180239B009E4201D919
:104F60000121CCE7B3B2884A280000F0B3FE002844
:104F7000D2D1A9E7667B252F09D8192F18D8032F7E
:104F800000D1BCE0122F00D181E0002F22D02300FD
:104F90003C331B78002BE3D12100636B607B7A4AA2
:104FA0009BB20F31FEF74AFE002800DBD9E0D7E7BD
:104FB00038001A380B28EAD802F00AFE8F001A00CF
:104FC000E9FFE9FFE9FFE9FFE9FFE9FFE9FF470042
:104FD000E9FF28003000FEF7FFFD002800D0C3E005
:104FE00023003C331B78002BD1D1FFF773FDCEE7B4
:104FF000664B002B00D1B7E0E17C30008B07CA077D
:10500000DB0FD20F0909FEF723FEE6E706AF3A00F1
:10501000300007A9FEF702FE079B002BE0D03A887C
:10502000002ADDD008205849013B1BBA12BA0B6098
:105030004A60A368002B93D0984200D91800220040
:1050400060632E32117883B28DE707AF0C22002106
:10505000380002F09FFF0E2302AA9B181A003000AE
:1050600006A9FEF7DBFD069A002AB9D002ABDB8960
:10507000002BB5D0082112BAF970089202225BBA4F
:105080007B81414B3A7207CF07C30C20D1E707AFB2
:1050900008220021380002F07DFF3D4B08220793D3
:1050A0001F23202109A83B7102F074FF1022202148
:1050B0000BA802F06FFF374B300009A90F930BAA22
:1050C0000FABFEF741FD304A130007CF07C307CFF0
:1050D00007C307CF07C32420ABE72F4A0123002AC9
:1050E00003D03000FEF706FE0300012058400323E2
:1050F000C0B2C0051843244B1860042099E707AFDD
:1051000012220021380002F045FF220023003D3228
:1051100011782200F0203C331B783E321278387030
:10512000E1380340BB700A23FB71174B7A73397364
:105130009C4607CF07C33A6812201A60BA889A8043
:10514000164B002B05D0802261463000920000E013
:1051500000BF220000233E32A3871370984200DA7A
:1051600015E7002800D064E7A368002B00D0F7E61D
:105170002300022230331A70CEE6C046340B0020E2
:10518000555342435553425334090020513C0000CB
:105190000080020220202020F53C000000000000DA
:1051A000E37BA26B0292282B05D1636BB618A66332
:1051B0009E42DDD2ADE62A2B51D1E18A49BA89B2AD
:1051C000002903D0A06802F00DFD81B22369207D83
:1051D0001B0A0006184303BA0298039302F088FDE5
:1051E000039B494F0A00C118607B3B000096FEF705
:1051F0005BFD002805DAA36B9E19A663FFF76AFC26
:10520000AEE6864221D9331A0293002808D0A26B59
:1052100083B2D318C119029A3800A36302F0A7FE23
:10522000230007AE2F330822002130001F7802F040
:10523000B1FE072300217370029B30003570377177
:10524000B360717100F070FC66E6A36BF618636BD7
:10525000A6639E428CD22800FFF772FC5CE6029B9C
:10526000F618237BA663DB090DD12100636B607BFD
:10527000254A9BB20F31FEF7E1FC002803DA390022
:105280002800FFF733FCA36B626B934200D36FE7F8
:1052900042E623002E331B788B4200D03CE60D2ED5
:1052A00000D039E6E37B282B0AD02A2B18D0174BE5
:1052B000002B0BD02100607B0F3100E000BF05E028
:1052C000134B002B02D0607B00E000BF23000022C4
:1052D00030331A7023002F33197822001F2343E63E
:1052E0000C4B002BF2D0607BFEF7F4FCEEE71B1AB0
:1052F000A3622300032230331A7022000D232800FA
:10530000203200F0E7FCE0E5340900200000000056
:1053100000000000D53C000070B50400817800203A
:1053200000F0FCFC051E0BD1201D00F0C3FA3F2845
:1053300006D9220040232800A178AC3200F0CAFC34
:1053400070BDF8B505004178002000F0E7FC061EAE
:1053500011D12F002800EC3740223900183000F01E
:10536000C9FA041E07D003003A003000697800F043
:10537000B1FC002800D100242000F8BD962213B50E
:10538000002400215200094802F004FE01234022BB
:1053900007490094074800F05FFA012340220649BC
:1053A0000094064800F058FA13BDC046740B002064
:1053B000A00B0020780B0020E00B00208C0B0020BD
:1053C000002210B5044B05481A6000F0E0FA0448CA
:1053D00000F0DDFA10BDC046740B0020780B0020F1
:1053E0008C0B0020F7B513004A7907000D00FF2A47
:1053F00001D00020FEBD1C4E7278B1780A43F8D16E
:10540000AA782C7832702A792C19E318002A02D154
:105410001EE0217864186178052901D09C42F8D3F8
:10542000124B21000193124B38000093022300F02D
:1054300009FC0028DDD007232A79B1785343E4180A
:10544000002908D17378002B02D03000FFF779FFD4
:10545000601B80B2CEE740233800064A00F03AFCD9
:105460000028EFD1C5E7C046740B0020750B002063
:10547000760B0020200C002010B5114CA2788A4237
:105480000ED0627800208A4219D10E4A002A03D039
:10549000002099B200E000BF2000FFF752FF0DE0AE
:1054A0009AB20949094800F069FA094B002B02D069
:1054B000002000E000BF2000FFF72EFF012010BDFC
:1054C000740B002000000000200C0020780B00204E
:1054D000000000008A18030090B2884202D39A8923
:1054E000824202D25A89801880B27047828810B5F1
:1054F0008A4204D88B1A84899BB29C4203D2438986
:10550000D218891A8BB2038210BD0000F7B5960835
:105510001400050032000B00013A114892B2824299
:105520000ED103232200B60089191A401C4206D06E
:10553000002301A8019302F011FD019B2B60F7BD30
:105540001878844667465878000238439F783F04AD
:105550000743D8780433000638432860DCE7C046A8
:10556000FFFF0000F0B50D00190087B00CAB040080
:1055700018880DAB1B780F1A16000393BFB2814237
:1055800002D26389FF1ABFB2A388BB4205D22000B2
:10559000FFF7ACFF208AA78880B2002F20D03B1CE9
:1055A000B74200D9331C9FB2A38883421BD9E2883B
:1055B000191A1600FB1AC318534389B24E435043BD
:1055C0009BB201932368B6B202961E18039B012B6F
:1055D00016D08F420AD8310028007A4302F0BEFC70
:1055E000380007B0F0BDC01A80B2DEE73100029A81
:1055F000280002F0B3FC029B2168019AE818EDE74D
:105600008F4206D831007A4392B22800FFF77EFF1E
:10561000E6E70323029A28009A4331000392FFF73A
:1056200075FF03230298029A18401A422AD0039B5E
:10563000019A9C4604231B1A191C9BB2B444934242
:1056400001D96B469988019B89B25B1A9BB2019381
:10565000002305AA05936646F65C9E5401339842E2
:10566000F9D1236800241218A14207D15918059BCB
:105670002B60019B002BB3D01A00C6E7185D1055B4
:105680000134F1E72168F4E7F7B596081500030047
:105690003200013A0D4C92B2A2420CD103232A00EF
:1056A000B60080191A401D4204D00B6801A901936D
:1056B00002F054FCF7BD0C68270A1C705F70270CC1
:1056C000240E9F70DC700433E3E7C046FFFF000048
:1056D00070B51C00D31A0E00050011009BB2A24247
:1056E00002D242899B1A9BB2AA889A4203D228000E
:1056F000FFF7FCFEAB88181E0AD0AA88A24208D980
:10570000EA88296854433000091902F027FC012077
:1057100070BDA41AA4B2F1E7F0B504009C46C38999
:1057200087B09BB201930F00008A217A1600A388EC
:10573000E28880B2002933D10199019D091A89B20A
:10574000854202D26089091A89B2591A081C89B2A5
:10575000B14200D9301C86B2019D9D4228D2581B0F
:10576000F31AEB185343110055439BB2009323687F
:1057700080B25D196346414389B20291012B24D066
:10578000864218D839002800724302F0E7FB320045
:1057900020000199FFF79EFEE081300007B0F0BDC8
:1057A0009E42D9D3F11A51431E007F180190D3E7CE
:1057B000ED1AADB2D1E73900029A280002F0CEFB13
:1057C000029B009A2068F918DFE7864206D8390064
:1057D0002800724392B2FFF757FFD8E70323029ADB
:1057E00039009A4328000392FFF74EFF03230299E2
:1057F000029A19401A422DD0039B009A9C4604231A
:105800005B1A181C9BB2AC44934201D96B461888B2
:10581000009B80B21B1A9BB200933B6805AA0593BC
:1058200000230292029A9D5C6246D554013399424C
:10583000F8D10025029B5A182368A84206D11818EF
:10584000009B002BA3D01A003900C4E7515D5955C5
:105850000135F2E72068F3E770B58026040004A85C
:10586000057836020020B2420CD8A280520092B2D3
:10587000E380531E5242E081216020822572A38181
:105880006281013070BDC189028A8B1A9BB291423C
:1058900002D242899B1A9BB28288101C9A4200D97C
:1058A000181C80B27047C389008A181A43425841B5
:1058B000C0B2704710B5C489018A8288631A9BB24E
:1058C0008C4202D240891B1A9BB2D01A80B210BD02
:1058D00070B5C289038A04009BB292B2FFF7F8FE4A
:1058E000218A050082B289B22000FFF7F3FD2082F1
:1058F000280070BD37B504000025C389008A9BB21B
:10590000019500902000FFF72DFE218A050002007E
:1059100089B22000FFF7DEFD208228003EBD10B5D1
:10592000C289038A92B29BB2FFF7D2FE10BD70B556
:105930000400C289008A95B2131A9BB2904202D920
:1059400062899B1A9BB2A2889A4215D1207A0028BC
:1059500012D170BD801A80B29042FBD2E2882368D7
:105960005043181802F0FAFA012229002000FFF72C
:10597000B1FDE0810120ECE72800EDE710B5002A39
:1059800003D00023FFF7C8FE0200100010BD002363
:10599000C381038283885B009BB25A1E5B42828173
:1059A0004381012070470172012070470B4A0300B8
:1059B000002A0BD00A4A1078984205D91820094AC3
:1059C00043431068C01870471B1ADBB20020042B39
:1059D000F9D8183043430448F4E7C04600000000FB
:1059E000A40C0020A00C00209882000070B50500D7
:1059F00000242000FFF7DAFF00281AD043682800AF
:105A000098470C4B01341B78E4B20433A342F0DA1C
:105A1000094C33220021200002F0BCFA1022FF21A1
:105A2000E01C02F0B7FA20001022FF21133002F030
:105A3000B1FA70BDA40C0020A50C002070B50500C3
:105A40000C001600086800F0D9FC32002800012183
:105A50002368984770BD000010B5054A0300107810
:105A6000002B02D000F07EFD10BD00F081FDFBE7B1
:105A700010010020024B5878431E9841C0B2704775
:105A8000A50C0020024B18784007C00F7047C04695
:105A9000A50C0020034B1878FF38431E9841C0B274
:105AA0007047C0461001002070B5184D04002B78D7
:105AB0000120FF2B29D133220021154802F06AFA78
:105AC000144E301DFFF763FF134B1E60134B002B6A
:105AD00004D0134800E000BF124B186000263000CD
:105AE000FFF764FF002810D0036898470C4B01367D
:105AF0001B78F6B20433B342F1DA20002C7000F0C8
:105B0000E9FC200000F02EFD012070BD10010020F6
:105B1000A50C0020F8000020D80C00200000000098
:105B2000A40C0020A00C00207FB5050040780C00DC
:105B3000023803281AD802F041F802621128012124
:105B4000304B1A788A431A701A7849188A431A70A7
:105B500000225A7004211A788A4306E0294B1A78E9
:105B6000D20716D5042219780A431A70264B1E68EC
:105B7000002C02D12000336898472900301DFFF720
:105B8000D6FE002C05D1336836E01E4B1A78D207BA
:105B9000E0D47FBD3000FFF709FF002805D043693E
:105BA000002B02D02878696898470136F6B2174B67
:105BB0001B780433B342EDDA124B1A785207E8D55A
:105BC00004211A7801A88A431A7000210C2202F0DD
:105BD000E1F96A462B781371052353710A4B1D684E
:105BE000002C02D120002B689847281D01A9FFF73F
:105BF0009EFE002CCDD12B6801209847C9E70026D6
:105C0000D5E7C046A50C0020D80C0020A40C00202D
:105C1000782370B58A780C001A4201D0002070BD3C
:105C2000064B20001D78064B997800F0BDFE002839
:105C3000F4D02100280000F0C7FCF0E7100100209C
:105C4000A50C0020F7B506000C001F0000250192EE
:105C5000019BAB4201DC012003E06378052B01D0FE
:105C60000020FEBDE3789B079B0FBB42F8D12100CB
:105C70003000FFF7CDFF0028F2D0A378DA09012A1F
:105C800005D1099A137023780135E418E0E7089AE2
:105C9000F8E700007F2010B50840C9094000233113
:105CA000411803484018002100F051FE10BDC046C5
:105CB000A50C00207F2010B50840C9094000233101
:105CC000411803484018002100F05EFE10BDC04698
:105CD000A50C002070B57F240C4060000D4CCD0950
:105CE000241864190434E57F0020ED0710D4012541
:105CF000E67F09482E430078E67700F0B5FC0028DF
:105D000006D10422E37FAB43E377E37F9343E3775A
:105D100070BDC046A50C0020100100207F22CB09D9
:105D20000A40044952008918C9180431C87FC007C5
:105D3000C00F7047A50C002010B57F240C406300F5
:105D40000A4CCA09E418A4180434E37F9B070BD457
:105D5000074B187800F0E2FC0223E27F1343E3775D
:105D60000123E27F1343E37710BDC046A50C00205A
:105D70001001002010B57F240C4063000A4CCA09B2
:105D8000E418A4180434E37F9B070BD5074B18785D
:105D900000F0D2FC0222E37F9343E377E37F013AF2
:105DA0009343E37710BDC046A50C002010010020EE
:105DB000F0B58DB000F0C7FD002800D186E2BE4BE3
:105DC00000201E6809AC350008CD98472800210046
:105DD000FFF77EFD3368050001209847002D00D1B4
:105DE00074E2607801380728E9D801F0F1FE080074
:105DF0001100E8FF4D025C021C00270268022078B7
:105E0000FFF7F4FD00F0F0FA2279AC4B9A70D6E778
:105E10002078FFF7EBFD00F0E7FAA94B002BCED07E
:105E200000E000BFCBE701260421A44D00202B7821
:105E3000277833432B702B1DDA7FB243DA77DA7F72
:105E40008A43DA776B1DDA7FB243DA77DA7F8A43E7
:105E5000DA7700F0D3FA602223791A400192602A9F
:105E600025D0402A0CD19748002820D000F0C6FA4F
:105E7000310038000AAAFDF7B3FF00289FD116E0D1
:105E8000DB06DE0E012E00D15CE1022E00D184E1A2
:105E9000002E0CD1019B202B13D1237A0F2B06D877
:105EA000ED18E878FFF782FD011E00D08FE109AC04
:105EB0002078002100F032FC8021207800F02EFCB8
:105EC0007DE7019B002BF2D160790928EFD801F022
:105ED0007FFE2E012601EEFF1D01EEFF0A00BE002F
:105EE000EEFF160020000AA800F08EFA3800A17913
:105EF00000F006FC02232A7813432B705FE708AA00
:105F00006B7802321370012338000AA900F03CFAC2
:105F100055E7A37902936B78029A9A4236D06B7850
:105F2000002B07D0380000F09DFBAC783800FFF75D
:105F30005DFDAC70029B002B28D0581EC0B2FDF74F
:105F40005BFC0028B3D043780493022BAFD101212E
:105F50003024C3799A115B110A400B4052011B0196
:105F600013432A78A243040013432B70C37882782A
:105F70001B021343C318093405930791059BA342E1
:105F80000CD8514B002B01D000E000BF4B4B029AC4
:105F90005A7038000AA900F0DFF910E7079A637811
:105FA00001920B2B03D1E37801932378E4186378F3
:105FB000042B00D07BE70025059B1B1B9BB206939F
:105FC000424B1B780433AB4200DA70E72800FFF73E
:105FD000EDFC061E00D16AE721003800069AB3687E
:105FE0009847039008282FD9069B83422CD3019B06
:105FF000012B0AD1B368364A934201D1049A019227
:10600000344A934201D1049B019300222B48019B07
:106010009A420DD12B002100039A133000F0F4FCBA
:10602000039BE418294B1B7804339D42A6DD3EE711
:10603000A378D318DBB2C318D978FF2900D036E78C
:106040000132DD70D2B2E2E70135EDB2B8E7E388A4
:106050001A0A501EDBB20E2800D928E701F0B8FD5D
:106060000F002600460027FF27FF4F00260027FFCE
:1060700027FF27FF27FF27FF27FF27FF1800FDF730
:10608000B7FB1223020038000AA900F07DF9F4E6FC
:10609000114B002B00D10AE7FDF79EFE021E00D136
:1060A00005E7C37881781B020B43ECE7022A15D180
:1060B0001800FDF7A1FBF1E7D80C0020A50C00208B
:1060C00000000000E13D000000000000A40C0020E2
:1060D000C140000085490000D93D00007C4A002AEB
:1060E00000D1E4E6180000E000BFD7E718002189DE
:1060F000FDF788FB021E00D1D9E60378C3E7754B94
:10610000002B00D1D3E600E000BFF3E7E388012BCA
:1061100000D0CCE62A78073313432B7039E7E388A5
:10612000012B00D0C3E608222B789343F5E72B78A8
:1061300008AA980699080223C00F194002320143A9
:106140001180E1E6237A0F2B00D9B0E6ED18E8784C
:10615000FFF72CFC002800D1A9E601000AAA3800AC
:106160000C31FFF76BFC002800D028E66025602288
:1061700023791D40134200D099E663790A3B012B35
:1061800000D994E6280000F039F963790A2B00D091
:10619000FFE608AB9A1C1570B5E6237A02937823C4
:1061A000029A1A4200D082E67F230299D2090B405C
:1061B0005B00EB189B18D87C0493FFF7F7FB019B5F
:1061C0000390002B09D0002800D170E601003800B0
:1061D0000C310AAAFFF732FC4FE663791A00B2438A
:1061E000012A0CD0002B00D061E6049B08AA0433DE
:1061F000DB7F02329B07DB0F1380330084E6E288EB
:10620000002A05D138000299012B14D1FFF7B2FD05
:10621000039B002B00D1D2E519000AAA0C313800EB
:10622000FFF70CFC0535002000F0E8F8EB7FDB07FA
:1062300000D5C4E5ADE6FFF77FFDE9E77F20012645
:106240002579254B28404100EA095B189B181A1D47
:10625000D17FB143D177D17F0336B143D1770028C5
:1062600006D1290062792078A36800F0DBF8A6E562
:10627000D87CFFF79BFB031E28D01E69290062799A
:106280002078A368B0479AE5134B1A78D20700D458
:1062900095E5124A002A00D191E518780007C00F51
:1062A00000E000BF8BE50C4B1B78DB0700D486E5D4
:1062B0000B4B002B00D182E500E000BF7FE5636857
:1062C000002B00D17BE5A068984778E50DB0F0BDC4
:1062D0000000000000000000A50C002000000000ED
:1062E000000000007F22CB090A40044952008918AF
:1062F000C9180431C87F8007C00F7047A50C002063
:1063000070B5134B0600D9899889421A151C92B2B0
:10631000402A00D940251A78ADB27F2A0ED988428A
:1063200011D00C4C2A009968200001F017FE802142
:1063300022002B003000FFF7CDFC70BD884204D155
:1063400000210022F5E78021FBE70021014AF0E768
:10635000DC0C0020F00C002070B50A4E040008226E
:1063600030000D0001F0FAFD002169560022C943FA
:10637000C90FF26013002000C901B260FFF7AAFC48
:1063800070BDC046DC0C0020F7B5164F15000600A6
:10639000082238000C00019301F0E0FD0023BD60ED
:1063A000FB81E279A379120201991A43131C8A42F4
:1063B00001D96B469B8899B2BB81002A07D000297E
:1063C00001D0281E02D03000FFF79AFFFEBD002149
:1063D00061561300C943C90F3000C901FFF77AFCA9
:1063E000F4E7C046DC0C002010B51422002102485E
:1063F00001F0D0FD10BDC046DC0C0020014B18613F
:106400007047C046DC0C002010B5054C0100082286
:10641000200001F0A3FD0023A360E36010BDC0468F
:10642000DC0C002070B5284C1E0023780500DA092A
:10643000C9098A4213D00020864232D1234B8342BD
:1064400003D02100280000F09DF823690120002BD3
:1064500027D02200032128009847012021E07F2B2C
:1064600006D8A368181E1CD03200194901F076FD29
:10647000A268E38992199B19A260E2889BB2E3812A
:106480009A4201D03F2E1BD82369002B0AD100214C
:1064900061560023C943C90F1A002800C901FFF73C
:1064A00019FC70BD0221220028009847011EEED180
:1064B000280000F033F98021280000F02FF9CCE704
:1064C0002800FFF71DFFECE7DC0C002085650000CD
:1064D000F00C002001221E4B30B519780A431A70C7
:1064E0009A78D207FCD59A78D207FCD41F25194A8E
:1064F0001C8D1268AC43910C29400C431C85198DEE
:10650000500B154C28408001214001431985198DFD
:1065100012489201520F014012030A431A850322C6
:10652000D9780A43DA700C22D9780A43DA700C4A17
:106530005A6200221A8106321A709A789207FCD4A5
:10654000998B9A8B0A439A8308221A8330BDC046DE
:1065500000500041246080003FF8FFFFFF8FFFFFE5
:106560003C0D00208022014B1A60704700E100E0E2
:106570008022034BDA67BFF34F8FBFF36F8F7047F3
:1065800004E100E00B785B0607D14B78052B04D1C2
:1065900080228B781343084A9372084B084A0949B2
:1065A0001A605A681140802292020A435A605A685F
:1065B000920B92035A607047005000413C0D00203E
:1065C000300D0020FF3F00F0F0B54D790A792D0223
:1065D00015436805420D7F239446012600228C78DE
:1065E0002340E4093000D71CB840604505DA013289
:1065F000072AF7D100206D0520D407205D00164E34
:106600002D192D01751902406F681607134A5B0199
:106610003A4032436A60124A9B18CA781978920746
:10662000920F01320240002C09D181430A431A70B3
:1066300011221A715A7A063802435A72F0BD70203C
:10664000120181430A431A7022221A71597A203AA0
:106650000A435A726F38F1E73C0D0020FFFFFF8FAD
:106660000051004170470000F0B57F2720480F40DF
:106670007E01C9097D0034186D181E482D012A506D
:106680001D4D002F13D1002A11D1002B0FD11B4F0C
:106690003A78D2098A420AD080220760476892027B
:1066A0002F403A4342604268920B920342609B043F
:1066B000801900290ED142681B092A401343436008
:1066C00043689B0B9B034360402323713C3B0120A9
:1066D000E371F0BD42699B0C2A4042614269920B12
:1066E00092031343436180236371783BEFE7C04615
:1066F000005100413C0D0020FF3F00F0300D002014
:10670000002310B51A008021FFF7AEFF0122024BD3
:106710009A831A8310BDC046005000417F23054A6A
:106720000B405B019B18C9092022012900D01022CF
:106730005A717047005100417F23054A0B405B01AD
:106740009B18C9092222012900D011221A71704711
:1067500000510041F0B5002401262A4B89B01B8C62
:106760009BB20393E3B201933300A340039A1A420E
:1067700043D0254B6201D3180193DB79D9B2029142
:1067800002210B421CD0214B05AD9B180021082291
:1067900028005F6901F0FEFBE023DB002B808023F3
:1067A000E2B25B4213432B710023BF043100280087
:1067B000BF0C6B71AF60FFF7B7F90222019BDA7172
:1067C000029B334219D0114B05AD62019B18002189
:1067D000082228005F6801F0DDFBE023DB002B804E
:1067E000E3B22B710023BF0431002800BF0C6B7192
:1067F000AF60FFF799F9019BDE710134082CB1D12C
:1068000009B0F0BD00500041005100413C0D002096
:10681000F0B5434C85B0A38B258B1D4004231D424E
:106820000DD001AE0021A3830C22300001F0B2FB99
:10683000C02301219B0030003380FFF775F9012749
:106840003D4210D0102301AEA7830021A3830C2268
:106850002383300001F09EFB80233900DB003000F1
:106860003380FFF761F910231D420ED001AEA383E0
:106870000021A3820C22300001F08CFBA023012117
:10688000DB0030003380FFF74FF908231D422ED084
:106890001120C021A383234BA0825A68224C890572
:1068A00022400A435A605A69224011435961132118
:1068B0001E4A107051721E4A1E491A605A6801A879
:1068C0001140802292020A435A605A680021920BBA
:1068D00092035A600C2201F05DFB80236A465B0044
:1068E00093800023012101A81372FFF71DF9124CB8
:1068F000237ADB060FD56B460022DA80C0230C4AD0
:1069000001A8DB00038002AB22CA22C30121FFF7EA
:106910000BF911232372FFF71DFF05B0F0BDC04630
:10692000005000413C0D0020FFFFFF8F005100414F
:10693000300D0020FF3F00F0FF50004110B5002057
:10694000FFF7B2F810BD10B5FFF7A4F810BD02783C
:106950000300D207D00F002A12D11A785207D10FA4
:10696000002A0CDB1A78D207D00F002A0AD11A7835
:10697000520704D40422012019780A431A70704780
:106980000020FCE70800FAE7027803005207D00F66
:10699000002A06DA1A78D20704D404211A788A4326
:1069A0001A7070470020FCE7020003794079D27822
:1069B0000002184340059207430D920F022A0DD0A2
:1069C0000020032A12D0012A07D102394A4251413C
:1069D0000B4A891899424041C0B2704700200229F1
:1069E00006D1084A9B1858425841F5E7022903D0BE
:1069F00040229A424041EFE78022D200F9E7C046A8
:106A0000FF03000000FEFFFF70B57F268A18914249
:106A100000D370BD4C78052C06D18D782C00344005
:106A20006400ED09041963550C780919EFE710B5F6
:106A30000400C06801F088FA0623E05E002802DB4B
:106A4000002100F0EFFF200010BD10B50400062368
:106A5000C05E002807DB012100F0E4FF00210623CF
:106A6000E05E01F00FF80123637010BD70B5050002
:106A7000C0680E0001F068FA2B7CEC7CE41A631EFF
:106A80009C4103347443A4B22000AC8001F052FA5C
:106A9000E860002805D02200002101F07BFA6E801A
:106AA00070BDA8806880FBE70322F8B58B110D113B
:106AB0008E101640134015400A404674827400261A
:106AC000FF228A427641C268C47C077CC374057485
:106AD0000670002A0AD0E21B5B1B51424A41594210
:106AE0004B419A4202D04188FFF7C0FFF8BD000039
:106AF000F8B5C3680400002B00D1EFE096256D00C7
:106B000000F09EFD6369984201D26061F8E7C01A07
:106B1000A842F5D372B60622A35E18220120534381
:106B20006F4FA688FA185268DB5D9040E268DB017F
:106B300015789619511C6B4A9F186B4A9B1822783E
:106B4000002A00D058E0803294463860C046C046E3
:106B5000C046C046C046C046C046C046C046C04605
:106B6000C0462A4200D192E0C046C046C046C04658
:106B7000C046C046C046C046C046C046C046C046E5
:106B8000C046C046C046C046C046C046C046C046D5
:106B9000C046C046C046C046C046C046C046186053
:106BA000C046C046C046C046C046C046C046C046B5
:106BB000C046C046C046C046C046C046C046C046A5
:106BC000C046C046C046C046C046C046C046C04695
:106BD000C046C046C046C046C046C046C046C04685
:106BE000521000D170E0D2B2C046C046C046C04686
:106BF000C046C046C046A8E7802294463860C046DA
:106C0000C046C046C046C046C046C046C0462A42EE
:106C100021D0C046C046C046C046C046C046C04659
:106C2000C046C046C046C046C046C046C046C04634
:106C3000C046C046C046C046C0461860521020D06C
:106C4000D2B2C046C046C046C046C046C046C04696
:106C5000C046C046D2E71860C046C046C046C046DF
:106C6000C046C046C046C046C046C046C046C046F4
:106C7000C046C046C046C046C046C046C046C046E4
:106C8000DCE7B14226D20D7862460131B6E71860E2
:106C9000C046C046C046C046C046C046C046C046C4
:106CA000C046C046C046C046C046C046C046C046B4
:106CB000C046C046C046C046C046C046C046C046A4
:106CC000C046C046C0466BE7B14203D20D7862466B
:106CD00001313AE762B600F0B3FC6061F8BDC0462E
:106CE00010830000184400411444004170B54378FB
:106CF00004000D00002B06D00623C05E002802DB36
:106D0000002100F08FFE6378E580002B07D0012181
:106D1000280000F087FE0021280000F0B3FE70BDBF
:106D200070B5040000200E0015001900607020727C
:106D3000E06060612000FFF7B7FE31002000FFF740
:106D400095FE29002000FFF7D1FF200070BDF0B5AF
:106D500005AC257844888C4216D9047A002C05D0DD
:106D6000624363436543120A1B0A2D0AC47C077CF5
:106D7000C668A74209D1032461437118047C0A55EF
:106D8000427C8B54837CCD54F0BD89007118002661
:106D90000E55F3E770B50B004D1C017AEDB20400FF
:106DA000A9421AD0C66800200139C9B2814205D073
:106DB000FF2B0ED1094800F09FFF80B20023A1886D
:106DC0009AB2914208D9F25C42431212F254013352
:106DD000F5E728020138EEE7257270BDFFFF0000DD
:106DE00010B500218288C06801F0D4F810BD000001
:106DF00010B5024800F0F2FA10BDC0463C0E00206B
:106E000010B501210C2000F00DFE01210C2000F036
:106E100039FE10BD13B50E4C0E49200000F07CF871
:106E20000D490E4800F078F80D490E4800F074F84E
:106E30000D490E4800F070F80123019302330093CE
:106E40000722210003330A4800F05EFA13BDC04652
:106E50003811002000080042000C00423C110020C4
:106E60000010004240110020001400424411002094
:106E70003C0E0020F8B505000E0017000024BC42AF
:106E800008D02B682800315D1B689847002801D086
:106E90000134F4E72000F8BD014B18607047C0468C
:106EA00014010020164A10B51368591C27D0013B65
:106EB0001360002B23D172B68122124B920004334F
:106EC000934213D3104A01211000147D0C42FCD0D0
:106ED0002021148BFF319B085B0021431183D36178
:106EE0000A4B13800123027D1A42FCD0BFF34F8F5F
:106EF000074B084ADA60BFF34F8FC046FDE710BD6D
:106F000014010020002000000040004102A5FFFF06
:106F100000ED00E00400FA05016070479446F0B50A
:106F200005AC25789C1E621E944162460668920755
:106F3000376824063A432243072432600068214020
:106F4000AD01002442682943022B00D05C030A43B0
:106F500022434260F0BD30B5C0250368AD031C6814
:106F600012052A402243C0240904A40221400A43F6
:106F70001A6003685A6814435C6030BD01230268DC
:106F800011680B43136003681A68D207FCD4DA69EE
:106F9000D207F9D470470223026811680B431360CB
:106FA0000268D3699B07FCD4704703681A7ED20736
:106FB00002D41A7E9207FCD57047002203685A83D8
:106FC00070470368187E4007C00F70470368187E3B
:106FD000C0097047802302685B42117E0B43137621
:106FE00070470368588B8007C00F70470223026800
:106FF000518B0B43538370470368187EC007C00F43
:1070000070470368188DC0B2704703681A7ED207B4
:10701000FCD589B2012019857047012203689A7551
:107020007047012203681A757047000003680B4A15
:1070300093420DD00A4A93420CD00A4A93420BD095
:107040000120094A4042934201D1043040B27047C6
:107050000020FBE70120F9E70220F7E700080042E3
:10706000000C00420010004200140042F8B5FFF787
:10707000DDFF00282CDB1D4BC00018180523047908
:10708000C3560320FF221840C0008240C021D243D3
:107090008140002B1DDB1F2501201D40C026A8407C
:1070A000134D7600A851C0269B089B005B19B600C3
:1070B0009F593A401143995128603F23234080242F
:1070C000E4011C430B4B5C805A7852B2002AFBDB74
:1070D000F8BD0F200340083B07489B089B001B1886
:1070E000D86902401143D961E7E7C046088500002E
:1070F00000E100E0000C004000ED00E0F8B5040005
:107100000F0016001D00FFF7B1FF2000FFF736FF4C
:107110001C21BB000B4071072268090C0B43136054
:10712000842322689375012F1AD11021012E00D0DB
:1071300008390C4B69431868C00000F053FD072262
:10714000216802408B895203DB04DB0C13438B81E3
:10715000226803049089DB0C400B400318439081A4
:10716000F8BDC046180100200120704710B5036823
:10717000014A1B6A984710BD130400000300FC334A
:10718000D96F9A6F914203D0DB6FC018007D7047B2
:1071900001204042FBE710B504000069FFF7EEFE56
:1071A00022000023FC329367D3679E229200A4182A
:1071B0006366A36610BDF0231B01194080230620DF
:1071C0009B0099420AD00133FF330130994205D028
:1071D000802300205B00994200D1053070470F20CA
:1071E00001400020012903D00239481E8141481C7A
:1071F00070470000B923F0B5182785B002919B00B5
:107200000400C05C3B0008214343324E1500F318D4
:10721000595600F063FC304B0821E05C3B004343CF
:10722000F318595600F05AFC2C4BE25C0393022AE7
:1072300009D11133E05CFF2805D008214743F71935
:10724000795600F04BFCBA27BF00E05DFF2819D04B
:10725000012100F0E7FB1822E35D21495A43B356B0
:10726000B618DB015818BB21890060501D49012266
:107270005B18BC218900635071688A40BD21890078
:1072800062501A600122029B11002069FFF736FF4D
:1072900029002000FFF78FFF290006002000FFF7DC
:1072A0009EFFF0221540303D6A42554103003100F7
:1072B000206901220095FFF731FE0B4B2069E25C4B
:1072C000039BE15CFFF747FE2069FFF764FE05B012
:1072D000F0BDC04610830000E5020000E702000098
:1072E0001844004114440041E6020000AF2210B5EA
:1072F00004000021520000F04DFE23000022FC3368
:1073000020005A669A6610BDF7B51D0008AB1B78C1
:107310000400009309AB1B7816000193002343601F
:10732000FA239B008360104B0F0008330360143076
:10733000FFF7DCFF20007D30FF30FFF7D7FFB923D8
:107340009B002761E654094B009AE554084B200046
:10735000E254019A074BE254BA22E93BFF3B920008
:10736000A3541032A354FEBD28850000E50200009E
:10737000E6020000E70200000300FC33586E9B6E3B
:10738000C01A01D55F30FF30704710B504002000EF
:107390007D30FF30FFF7F0FF0028F8D12069FFF7BC
:1073A00004FE10BD10B51430FFF7E6FF10BD03005A
:1073B000FC33596E9A6E914205DB5A6E986E801AB4
:1073C0005E30FF307047986E5B6EC01A0138F9E787
:1073D00010B57D30FF30FFF7EAFF10BD70B5040037
:1073E0000069FFF7FEFD002805D02069FFF709FEC0
:1073F0002069FFF7FBFD2069FFF7E3FD002824D09B
:1074000025002069FFF7FDFDAF21FC350600A86FC0
:107410004900013000F06CFCEB6F994203D0AB6F78
:10742000E3181E75A967BA239B00E35CFF2B0CD001
:1074300020001430FFF7BBFF092806DCBB23BD2268
:107440009B009200E358A2581A602069FFF7D4FD10
:1074500000281DD020007D30FF30FFF78DFF002871
:1074600025D09E239B00E618B26E736E9A421BD005
:10747000BE22AF21B36EB06EE31852000130490056
:107480009D5C00F035FCB1662069E9B2FFF7BDFDF7
:107490002069FFF79BFD002805D02069FFF79AFDC2
:1074A0002069FFF78AFD70BD01256D42ECE7206978
:1074B000FFF7B7FDECE70000F7B5040000690E0028
:1074C000FFF79AFD002847D1AF277F009E239B003E
:1074D000E518686EAB6E39000130019300F008FCCE
:1074E000019B994224D1EFF31083DB070ED4204B8C
:1074F0005B68DB05DA0D002BE8D0103A53B21206B8
:107500000DD49B081B4AC0339B009B582069FFF792
:1075100073FD0028DAD02000FFF760FFD6E70F22C6
:107520001340083B144A9B089B009B181B68EDE71F
:10753000AF21686E4900013000F0DAFBAB6E994272
:1075400005D0BE226B6E5200E3189E546966206916
:10755000FFF763FD0120FEBD20007D30FF30FFF707
:107560000BFF0028B0D131002069FFF74EFDF1E795
:1075700000ED00E000E100E01CED00E070B505006A
:10758000FC35EA6FAB6F04009A421DD0AF21EB6F60
:107590004900C318E86F1E7D013000F0A9FBE967C0
:1075A000BA239B00E35CFF2B0CD020001430FFF7C4
:1075B000FEFE0A2806DDBC23BD229B009200E35894
:1075C000A2581A60300070BD01267642E8E7FEE757
:1075D0000F4A1048110010B50F4B824202D093425F
:1075E00009D11300824209D100F09EF800F080F822
:1075F000FEE710CB10C18142FBD3F3E7074A8B4271
:10760000F2D00021064B9A42EED202C2FBE7C046FE
:1076100000000020A001002060850000A0010020E3
:10762000E013002010B500F061F8002801D100F04F
:1076300037F810BD014B18687047C046481100204C
:10764000F7B51348012284461249134C8E686368CB
:1076500005689B0E1340019288686268019F920E34
:107660003A4067463F6893420ED1BD420CD18642F4
:107670000AD35B19FA254868AD00861B07486B439F
:107680007043000DC018FEBD3D0013000600E3E787
:107690004811002010E000E000ED00E0555500002A
:1076A00010B5034A136801331360FFF7FBFB10BDED
:1076B0004811002010B5FBF7A3FDFBF7A8FD10BD96
:1076C00070B5041E11D0FFF7BBFFFA260500B60007
:1076D000FFF7F0FFFFF7B4FF401BB042F8D3FA23E7
:1076E000013C9B00ED18002CF4D170BD00207047C8
:1076F00010B500F0E3F800F0F9FBFFF781FB012083
:10770000FFF7DEFF0020FBF773FDFAF725FDFBF71F
:1077100095F9FFF7CFFF034B002BF8D000E000BF37
:10772000F5E7C046000000001E22F0B55048514960
:107730004368514D93431A000223134343600823C7
:107740008A691343FE228B612B68D2039B0213408C
:107750004A4A13434A4A936113000422DC681442E4
:10776000FCD00124474A14701678264203D056787C
:1077700076B2002EF8DB01249460547864B2002CB9
:10778000FBDB414C5460547864B2002CFBDB822458
:10779000E4015480547864B2002CFBDB02249C8406
:1077A0000E34DE682642FCD0384CDC621024DE68E1
:1077B0002642FCD02C68A40E3F2C00D1203C9E6AAF
:1077C000334FA4023E4034439C629C6A314EA40A6B
:1077D000A40234439C62304CDC6200249C8410344C
:1077E000DE682642FCD02D4C9C841024DE682642A4
:1077F000FCD002249E8C34439C841024DE682642F4
:10780000FCD000249460547864B2002CFBDB244C40
:107810005460547864B2002CFBDB1C6A214E344067
:1078200080261C621C6AB4431C62032393601E4BB7
:10783000536053785BB2002BFBDB0023FF240B72F9
:107840001A4A4B728B72CB72194B1A60194A2B6809
:1078500011689A065B01C90E2340520F12020B43B6
:107860001343154A13858023426813434360F0BDD8
:107870000040004100040040246080000606000033
:1078800000080040000C004001040100B905FF7D24
:10789000FF03FFFFFF01000080BB0A1C240500005E
:1078A00000070300FFFCFFFF03060100006CDC0281
:1078B000180100202060800000400042FA212E4B79
:1078C00010B51868890000F08DF9802301385B0439
:1078D00098424FD229492A4A4860C020136A0006BC
:1078E0001B021B0A0343136200238B6007330B60E8
:1078F0008021136A09061B021B0A0B431362FC2238
:10790000204B196A0A431A62FF22196A12020A43BB
:107910001A62A022196AD2020A431A621A4B1C0088
:107920005A7852B2002AFBDB184A5A80184B1A00C8
:10793000597EC9090129FBD0C821890099800521F8
:10794000D970537EDB09012BFBD0C02300205B01E3
:107950001361907000F022F863785BB2002BFBDBC0
:107960000C4B0D4A6380D379DB09012BFBD04123FB
:10797000537010BDFEE7C0461801002010E000E083
:1079800000ED00E000040040000C00401E4000003C
:107990000040004221400000004800421F4900B55D
:1079A0000B004A7ED209012AFBD001380A282FD8C1
:1079B00000F004F91B2E2E2E2E2E062E2E24110042
:1079C0001A6917490A400F211A615A788A4311002F
:1079D00001220A4310E01A6911490A400F211A6175
:1079E0005A788A4311000322F3E71A690C490A40C6
:1079F0000F211A615A788A435A7000BD1A690849E2
:107A00000A400F211A615A788A4311000222E0E7E6
:107A1000F022196912050A43F3E7C046004000420C
:107A2000FFFFFFF0182310B508245843134A13181A
:107A30001C57013412D001245B6882569C400329F4
:107A40000CD808000E49D2015218D318403300F068
:107A5000B5F80210060B02211970546010BD062102
:107A6000197054609461F9E70621197054605461EB
:107A7000F4E7422119709460F0E7C04610830000DB
:107A8000004400411823F0B508245843114A131844
:107A90001C5701341BD0012635005F688356BD405A
:107AA0000D4ADB019A18906805420BD10C00601E4C
:107AB0008441D2194032107834400336A400B043D8
:107AC00020431070044A9B18002901D15D61F0BD6C
:107AD0009D61FCE71083000000440041182370B54D
